{
  "_format": "hh-sol-artifact-1",
  "contractName": "KimLPNFTPair",
  "sourceName": "contracts/LPNFTPair.sol",
  "abi": [
    {
      "inputs": [
        {
          "internalType": "address",
          "name": "_lp404",
          "type": "address"
        }
      ],
      "stateMutability": "nonpayable",
      "type": "constructor"
    },
    {
      "anonymous": false,
      "inputs": [
        {
          "indexed": true,
          "internalType": "address",
          "name": "owner",
          "type": "address"
        },
        {
          "indexed": true,
          "internalType": "address",
          "name": "spender",
          "type": "address"
        },
        {
          "indexed": false,
          "internalType": "uint256",
          "name": "value",
          "type": "uint256"
        }
      ],
      "name": "Approval",
      "type": "event"
    },
    {
      "anonymous": false,
      "inputs": [
        {
          "indexed": true,
          "internalType": "address",
          "name": "sender",
          "type": "address"
        },
        {
          "indexed": false,
          "internalType": "uint256",
          "name": "amount0",
          "type": "uint256"
        },
        {
          "indexed": false,
          "internalType": "uint256",
          "name": "amount1",
          "type": "uint256"
        },
        {
          "indexed": true,
          "internalType": "address",
          "name": "to",
          "type": "address"
        }
      ],
      "name": "Burn",
      "type": "event"
    },
    {
      "anonymous": false,
      "inputs": [
        {
          "indexed": true,
          "internalType": "address",
          "name": "token",
          "type": "address"
        },
        {
          "indexed": false,
          "internalType": "address",
          "name": "to",
          "type": "address"
        }
      ],
      "name": "DrainWrongToken",
      "type": "event"
    },
    {
      "anonymous": false,
      "inputs": [
        {
          "indexed": false,
          "internalType": "uint16",
          "name": "token0FeePercent",
          "type": "uint16"
        },
        {
          "indexed": false,
          "internalType": "uint16",
          "name": "token1FeePercent",
          "type": "uint16"
        }
      ],
      "name": "FeePercentUpdated",
      "type": "event"
    },
    {
      "anonymous": false,
      "inputs": [
        {
          "indexed": true,
          "internalType": "address",
          "name": "sender",
          "type": "address"
        },
        {
          "indexed": false,
          "internalType": "uint256",
          "name": "amount0",
          "type": "uint256"
        },
        {
          "indexed": false,
          "internalType": "uint256",
          "name": "amount1",
          "type": "uint256"
        }
      ],
      "name": "Mint",
      "type": "event"
    },
    {
      "anonymous": false,
      "inputs": [],
      "name": "SetPairTypeImmutable",
      "type": "event"
    },
    {
      "anonymous": false,
      "inputs": [
        {
          "indexed": false,
          "internalType": "bool",
          "name": "prevStableSwap",
          "type": "bool"
        },
        {
          "indexed": false,
          "internalType": "bool",
          "name": "stableSwap",
          "type": "bool"
        }
      ],
      "name": "SetStableSwap",
      "type": "event"
    },
    {
      "anonymous": false,
      "inputs": [],
      "name": "Skim",
      "type": "event"
    },
    {
      "anonymous": false,
      "inputs": [
        {
          "indexed": true,
          "internalType": "address",
          "name": "sender",
          "type": "address"
        },
        {
          "indexed": false,
          "internalType": "uint256",
          "name": "amount0In",
          "type": "uint256"
        },
        {
          "indexed": false,
          "internalType": "uint256",
          "name": "amount1In",
          "type": "uint256"
        },
        {
          "indexed": false,
          "internalType": "uint256",
          "name": "amount0Out",
          "type": "uint256"
        },
        {
          "indexed": false,
          "internalType": "uint256",
          "name": "amount1Out",
          "type": "uint256"
        },
        {
          "indexed": true,
          "internalType": "address",
          "name": "to",
          "type": "address"
        }
      ],
      "name": "Swap",
      "type": "event"
    },
    {
      "anonymous": false,
      "inputs": [
        {
          "indexed": false,
          "internalType": "uint112",
          "name": "reserve0",
          "type": "uint112"
        },
        {
          "indexed": false,
          "internalType": "uint112",
          "name": "reserve1",
          "type": "uint112"
        }
      ],
      "name": "Sync",
      "type": "event"
    },
    {
      "anonymous": false,
      "inputs": [
        {
          "indexed": true,
          "internalType": "address",
          "name": "from",
          "type": "address"
        },
        {
          "indexed": true,
          "internalType": "address",
          "name": "to",
          "type": "address"
        },
        {
          "indexed": false,
          "internalType": "uint256",
          "name": "value",
          "type": "uint256"
        }
      ],
      "name": "Transfer",
      "type": "event"
    },
    {
      "inputs": [],
      "name": "DOMAIN_SEPARATOR",
      "outputs": [
        {
          "internalType": "bytes32",
          "name": "",
          "type": "bytes32"
        }
      ],
      "stateMutability": "view",
      "type": "function"
    },
    {
      "inputs": [],
      "name": "FEE_DENOMINATOR",
      "outputs": [
        {
          "internalType": "uint256",
          "name": "",
          "type": "uint256"
        }
      ],
      "stateMutability": "view",
      "type": "function"
    },
    {
      "inputs": [],
      "name": "MAX_FEE_PERCENT",
      "outputs": [
        {
          "internalType": "uint256",
          "name": "",
          "type": "uint256"
        }
      ],
      "stateMutability": "view",
      "type": "function"
    },
    {
      "inputs": [],
      "name": "MINIMUM_LIQUIDITY",
      "outputs": [
        {
          "internalType": "uint256",
          "name": "",
          "type": "uint256"
        }
      ],
      "stateMutability": "view",
      "type": "function"
    },
    {
      "inputs": [],
      "name": "PERMIT_TYPEHASH",
      "outputs": [
        {
          "internalType": "bytes32",
          "name": "",
          "type": "bytes32"
        }
      ],
      "stateMutability": "view",
      "type": "function"
    },
    {
      "inputs": [
        {
          "internalType": "address",
          "name": "",
          "type": "address"
        },
        {
          "internalType": "address",
          "name": "",
          "type": "address"
        }
      ],
      "name": "allowance",
      "outputs": [
        {
          "internalType": "uint256",
          "name": "",
          "type": "uint256"
        }
      ],
      "stateMutability": "view",
      "type": "function"
    },
    {
      "inputs": [
        {
          "internalType": "address",
          "name": "spender",
          "type": "address"
        },
        {
          "internalType": "uint256",
          "name": "value",
          "type": "uint256"
        }
      ],
      "name": "approve",
      "outputs": [
        {
          "internalType": "bool",
          "name": "",
          "type": "bool"
        }
      ],
      "stateMutability": "nonpayable",
      "type": "function"
    },
    {
      "inputs": [
        {
          "internalType": "address",
          "name": "feeSharingContract",
          "type": "address"
        },
        {
          "internalType": "uint256",
          "name": "tokenId",
          "type": "uint256"
        }
      ],
      "name": "assign",
      "outputs": [
        {
          "internalType": "uint256",
          "name": "",
          "type": "uint256"
        }
      ],
      "stateMutability": "nonpayable",
      "type": "function"
    },
    {
      "inputs": [
        {
          "internalType": "address",
          "name": "",
          "type": "address"
        }
      ],
      "name": "balanceOf",
      "outputs": [
        {
          "internalType": "uint256",
          "name": "",
          "type": "uint256"
        }
      ],
      "stateMutability": "view",
      "type": "function"
    },
    {
      "inputs": [
        {
          "internalType": "address",
          "name": "to",
          "type": "address"
        }
      ],
      "name": "burn",
      "outputs": [
        {
          "internalType": "uint256",
          "name": "amount0",
          "type": "uint256"
        },
        {
          "internalType": "uint256",
          "name": "amount1",
          "type": "uint256"
        }
      ],
      "stateMutability": "nonpayable",
      "type": "function"
    },
    {
      "inputs": [],
      "name": "decimals",
      "outputs": [
        {
          "internalType": "uint8",
          "name": "",
          "type": "uint8"
        }
      ],
      "stateMutability": "view",
      "type": "function"
    },
    {
      "inputs": [
        {
          "internalType": "address",
          "name": "token",
          "type": "address"
        },
        {
          "internalType": "address",
          "name": "to",
          "type": "address"
        }
      ],
      "name": "drainWrongToken",
      "outputs": [],
      "stateMutability": "nonpayable",
      "type": "function"
    },
    {
      "inputs": [],
      "name": "factory",
      "outputs": [
        {
          "internalType": "address",
          "name": "",
          "type": "address"
        }
      ],
      "stateMutability": "view",
      "type": "function"
    },
    {
      "inputs": [
        {
          "internalType": "uint256",
          "name": "amountIn",
          "type": "uint256"
        },
        {
          "internalType": "address",
          "name": "tokenIn",
          "type": "address"
        }
      ],
      "name": "getAmountOut",
      "outputs": [
        {
          "internalType": "uint256",
          "name": "",
          "type": "uint256"
        }
      ],
      "stateMutability": "view",
      "type": "function"
    },
    {
      "inputs": [],
      "name": "getReserves",
      "outputs": [
        {
          "internalType": "uint112",
          "name": "_reserve0",
          "type": "uint112"
        },
        {
          "internalType": "uint112",
          "name": "_reserve1",
          "type": "uint112"
        },
        {
          "internalType": "uint16",
          "name": "_token0FeePercent",
          "type": "uint16"
        },
        {
          "internalType": "uint16",
          "name": "_token1FeePercent",
          "type": "uint16"
        }
      ],
      "stateMutability": "view",
      "type": "function"
    },
    {
      "inputs": [],
      "name": "getTotalSupply",
      "outputs": [
        {
          "internalType": "uint256",
          "name": "",
          "type": "uint256"
        }
      ],
      "stateMutability": "view",
      "type": "function"
    },
    {
      "inputs": [
        {
          "internalType": "address",
          "name": "_token0",
          "type": "address"
        },
        {
          "internalType": "address",
          "name": "_token1",
          "type": "address"
        }
      ],
      "name": "initialize",
      "outputs": [],
      "stateMutability": "nonpayable",
      "type": "function"
    },
    {
      "inputs": [],
      "name": "initialized",
      "outputs": [
        {
          "internalType": "bool",
          "name": "",
          "type": "bool"
        }
      ],
      "stateMutability": "view",
      "type": "function"
    },
    {
      "inputs": [],
      "name": "kLast",
      "outputs": [
        {
          "internalType": "uint256",
          "name": "",
          "type": "uint256"
        }
      ],
      "stateMutability": "view",
      "type": "function"
    },
    {
      "inputs": [],
      "name": "lp404",
      "outputs": [
        {
          "internalType": "address",
          "name": "",
          "type": "address"
        }
      ],
      "stateMutability": "view",
      "type": "function"
    },
    {
      "inputs": [
        {
          "internalType": "address",
          "name": "to",
          "type": "address"
        }
      ],
      "name": "mint",
      "outputs": [
        {
          "internalType": "uint256",
          "name": "liquidity",
          "type": "uint256"
        }
      ],
      "stateMutability": "nonpayable",
      "type": "function"
    },
    {
      "inputs": [],
      "name": "name",
      "outputs": [
        {
          "internalType": "string",
          "name": "",
          "type": "string"
        }
      ],
      "stateMutability": "view",
      "type": "function"
    },
    {
      "inputs": [
        {
          "internalType": "address",
          "name": "",
          "type": "address"
        }
      ],
      "name": "nonces",
      "outputs": [
        {
          "internalType": "uint256",
          "name": "",
          "type": "uint256"
        }
      ],
      "stateMutability": "view",
      "type": "function"
    },
    {
      "inputs": [],
      "name": "pairTypeImmutable",
      "outputs": [
        {
          "internalType": "bool",
          "name": "",
          "type": "bool"
        }
      ],
      "stateMutability": "view",
      "type": "function"
    },
    {
      "inputs": [
        {
          "internalType": "address",
          "name": "owner",
          "type": "address"
        },
        {
          "internalType": "address",
          "name": "spender",
          "type": "address"
        },
        {
          "internalType": "uint256",
          "name": "value",
          "type": "uint256"
        },
        {
          "internalType": "uint256",
          "name": "deadline",
          "type": "uint256"
        },
        {
          "internalType": "uint8",
          "name": "v",
          "type": "uint8"
        },
        {
          "internalType": "bytes32",
          "name": "r",
          "type": "bytes32"
        },
        {
          "internalType": "bytes32",
          "name": "s",
          "type": "bytes32"
        }
      ],
      "name": "permit",
      "outputs": [],
      "stateMutability": "nonpayable",
      "type": "function"
    },
    {
      "inputs": [],
      "name": "precisionMultiplier0",
      "outputs": [
        {
          "internalType": "uint256",
          "name": "",
          "type": "uint256"
        }
      ],
      "stateMutability": "view",
      "type": "function"
    },
    {
      "inputs": [],
      "name": "precisionMultiplier1",
      "outputs": [
        {
          "internalType": "uint256",
          "name": "",
          "type": "uint256"
        }
      ],
      "stateMutability": "view",
      "type": "function"
    },
    {
      "inputs": [
        {
          "internalType": "address",
          "name": "feeSharingContract",
          "type": "address"
        },
        {
          "internalType": "address",
          "name": "recipient",
          "type": "address"
        }
      ],
      "name": "register",
      "outputs": [
        {
          "internalType": "uint256",
          "name": "tokenId",
          "type": "uint256"
        }
      ],
      "stateMutability": "nonpayable",
      "type": "function"
    },
    {
      "inputs": [
        {
          "internalType": "uint16",
          "name": "newToken0FeePercent",
          "type": "uint16"
        },
        {
          "internalType": "uint16",
          "name": "newToken1FeePercent",
          "type": "uint16"
        }
      ],
      "name": "setFeePercent",
      "outputs": [],
      "stateMutability": "nonpayable",
      "type": "function"
    },
    {
      "inputs": [],
      "name": "setPairTypeImmutable",
      "outputs": [],
      "stateMutability": "nonpayable",
      "type": "function"
    },
    {
      "inputs": [
        {
          "internalType": "bool",
          "name": "stable",
          "type": "bool"
        },
        {
          "internalType": "uint112",
          "name": "expectedReserve0",
          "type": "uint112"
        },
        {
          "internalType": "uint112",
          "name": "expectedReserve1",
          "type": "uint112"
        }
      ],
      "name": "setStableSwap",
      "outputs": [],
      "stateMutability": "nonpayable",
      "type": "function"
    },
    {
      "inputs": [
        {
          "internalType": "address",
          "name": "to",
          "type": "address"
        }
      ],
      "name": "skim",
      "outputs": [],
      "stateMutability": "nonpayable",
      "type": "function"
    },
    {
      "inputs": [],
      "name": "stableSwap",
      "outputs": [
        {
          "internalType": "bool",
          "name": "",
          "type": "bool"
        }
      ],
      "stateMutability": "view",
      "type": "function"
    },
    {
      "inputs": [
        {
          "internalType": "uint256",
          "name": "amount0Out",
          "type": "uint256"
        },
        {
          "internalType": "uint256",
          "name": "amount1Out",
          "type": "uint256"
        },
        {
          "internalType": "address",
          "name": "to",
          "type": "address"
        },
        {
          "internalType": "bytes",
          "name": "data",
          "type": "bytes"
        }
      ],
      "name": "swap",
      "outputs": [],
      "stateMutability": "nonpayable",
      "type": "function"
    },
    {
      "inputs": [
        {
          "internalType": "uint256",
          "name": "amount0Out",
          "type": "uint256"
        },
        {
          "internalType": "uint256",
          "name": "amount1Out",
          "type": "uint256"
        },
        {
          "internalType": "address",
          "name": "to",
          "type": "address"
        },
        {
          "internalType": "bytes",
          "name": "data",
          "type": "bytes"
        },
        {
          "internalType": "address",
          "name": "referrer",
          "type": "address"
        }
      ],
      "name": "swap",
      "outputs": [],
      "stateMutability": "nonpayable",
      "type": "function"
    },
    {
      "inputs": [],
      "name": "symbol",
      "outputs": [
        {
          "internalType": "string",
          "name": "",
          "type": "string"
        }
      ],
      "stateMutability": "view",
      "type": "function"
    },
    {
      "inputs": [],
      "name": "sync",
      "outputs": [],
      "stateMutability": "nonpayable",
      "type": "function"
    },
    {
      "inputs": [],
      "name": "token0",
      "outputs": [
        {
          "internalType": "address",
          "name": "",
          "type": "address"
        }
      ],
      "stateMutability": "view",
      "type": "function"
    },
    {
      "inputs": [],
      "name": "token0FeePercent",
      "outputs": [
        {
          "internalType": "uint16",
          "name": "",
          "type": "uint16"
        }
      ],
      "stateMutability": "view",
      "type": "function"
    },
    {
      "inputs": [],
      "name": "token1",
      "outputs": [
        {
          "internalType": "address",
          "name": "",
          "type": "address"
        }
      ],
      "stateMutability": "view",
      "type": "function"
    },
    {
      "inputs": [],
      "name": "token1FeePercent",
      "outputs": [
        {
          "internalType": "uint16",
          "name": "",
          "type": "uint16"
        }
      ],
      "stateMutability": "view",
      "type": "function"
    },
    {
      "inputs": [],
      "name": "totalSupply",
      "outputs": [
        {
          "internalType": "uint256",
          "name": "",
          "type": "uint256"
        }
      ],
      "stateMutability": "view",
      "type": "function"
    },
    {
      "inputs": [
        {
          "internalType": "address",
          "name": "to",
          "type": "address"
        },
        {
          "internalType": "uint256",
          "name": "value",
          "type": "uint256"
        }
      ],
      "name": "transfer",
      "outputs": [
        {
          "internalType": "bool",
          "name": "",
          "type": "bool"
        }
      ],
      "stateMutability": "nonpayable",
      "type": "function"
    },
    {
      "inputs": [
        {
          "internalType": "address",
          "name": "from",
          "type": "address"
        },
        {
          "internalType": "address",
          "name": "to",
          "type": "address"
        },
        {
          "internalType": "uint256",
          "name": "value",
          "type": "uint256"
        }
      ],
      "name": "transferFrom",
      "outputs": [
        {
          "internalType": "bool",
          "name": "",
          "type": "bool"
        }
      ],
      "stateMutability": "nonpayable",
      "type": "function"
    },
    {
      "inputs": [
        {
          "internalType": "address",
          "name": "feeSharingContract",
          "type": "address"
        },
        {
          "internalType": "uint256",
          "name": "tokenId",
          "type": "uint256"
        },
        {
          "internalType": "address payable",
          "name": "recipient",
          "type": "address"
        },
        {
          "internalType": "uint256",
          "name": "amount",
          "type": "uint256"
        }
      ],
      "name": "withdraw",
      "outputs": [
        {
          "internalType": "uint256",
          "name": "",
          "type": "uint256"
        }
      ],
      "stateMutability": "nonpayable",
      "type": "function"
    }
  ],
  "bytecode": "0x60806040526009805461ffff60e01b1916604b60e21b176001600160f01b0316604b60f21b1790556001600e553480156200003957600080fd5b506040516200476a3803806200476a833981810160405260208110156200005f57600080fd5b50516040514690806052620047188239604080519182900360520182208282018252600683526504b696d204c560d41b6020938401528151808301835260018152603160f81b908401528151808401919091527f44bdfa699994f96d5a8ee53bc47a36e8899c183ecd44628a53c5cc346c910506818301527fc89efdaa54c0f20c7adf612882df0950f5a951637e0307cdcb4c672f298b8bc6606082015260808101949094523060a0808601919091528151808603909101815260c09094019052825192019190912060035550600580546001600160a01b03199081163317909155600880546001600160a01b0393909316929091169190911790556145ad806200016b6000396000f3fe608060405234801561001057600080fd5b506004361061027f5760003560e01c80636e1fdd7f1161015c578063ba9a7a56116100ce578063d505accf11610087578063d505accf146107ff578063d73792a914610850578063dd62ed3e14610858578063f140a35a14610886578063f39ac11f146108b2578063fff6cae9146108e05761027f565b8063ba9a7a561461078d578063bc25cf7714610795578063be760488146107bb578063c45a0155146107e7578063c4e41b22146107ef578063d21220a7146107f75761027f565b8063948fc54711610120578063948fc5471461071357806395d89b411461071b5780639e548b7f14610723578063a9059cbb1461072b578063aa67735414610757578063b6200b07146107855761027f565b80636e1fdd7f146105eb57806370a08231146106805780637464fc3d146106a65780637ecebe00146106ae57806389afcb44146106d45761027f565b806330adf81f116101f5578063485cc955116101b9578063485cc9551461052457806348e5d260146105525780634b2084e31461057b57806362ecec03146105b557806367d81740146105bd5780636a627842146105c55761027f565b806330adf81f146104e6578063313ce567146104ee5780633644e5151461050c5780633b9f1dc0146105145780633ba170771461051c5761027f565b8063158ef93e11610247578063158ef93e1461043157806318160ddd1461043957806323b872dd14610453578063288e5d02146104895780632fcd1692146104915780633029e5d4146104b05761027f565b8063022c0d9f1461028457806306fdde03146103125780630902f1ac1461038f578063095ea7b3146103cd5780630dfe16811461040d575b600080fd5b6103106004803603608081101561029a57600080fd5b8135916020810135916001600160a01b0360408301351691908101906080810160608201356401000000008111156102d157600080fd5b8201836020820111156102e357600080fd5b8035906020019184600183028401116401000000008311171561030557600080fd5b5090925090506108e8565b005b61031a610989565b6040805160208082528351818301528351919283929083019185019080838360005b8381101561035457818101518382015260200161033c565b50505050905090810190601f1680156103815780820380516001836020036101000a031916815260200191505b509250505060405180910390f35b6103976109ab565b604080516001600160701b03958616815293909416602084015261ffff9182168385015216606082015290519081900360800190f35b6103f9600480360360408110156103e357600080fd5b506001600160a01b0381351690602001356109de565b604080519115158252519081900360200190f35b6104156109f5565b604080516001600160a01b039092168252519081900360200190f35b6103f9610a04565b610441610a14565b60408051918252519081900360200190f35b6103f96004803603606081101561046957600080fd5b506001600160a01b03813581169160208101359091169060400135610a1a565b610441610af1565b610499610af7565b6040805161ffff9092168252519081900360200190f35b610310600480360360608110156104c657600080fd5b5080351515906001600160701b0360208201358116916040013516610b08565b610441610de4565b6104f6610e08565b6040805160ff9092168252519081900360200190f35b610441610e0d565b610441610e13565b610310610e19565b6103106004803603604081101561053a57600080fd5b506001600160a01b0381358116916020013516610fc7565b6103106004803603604081101561056857600080fd5b5061ffff81358116916020013516611157565b6104416004803603608081101561059157600080fd5b506001600160a01b0381358116916020810135916040820135169060600135611380565b610499611589565b61044161159a565b610441600480360360208110156105db57600080fd5b50356001600160a01b03166115a0565b610310600480360360a081101561060157600080fd5b8135916020810135916001600160a01b03604083013516919081019060808101606082013564010000000081111561063857600080fd5b82018360208201111561064a57600080fd5b8035906020019184600183028401116401000000008311171561066c57600080fd5b9193509150356001600160a01b0316611929565b6104416004803603602081101561069657600080fd5b50356001600160a01b03166119cd565b6104416119df565b610441600480360360208110156106c457600080fd5b50356001600160a01b03166119e5565b6106fa600480360360208110156106ea57600080fd5b50356001600160a01b03166119f7565b6040805192835260208301919091528051918290030190f35b610415611e7c565b61031a611e8b565b6103f9611ead565b6103f96004803603604081101561074157600080fd5b506001600160a01b038135169060200135611eb6565b6104416004803603604081101561076d57600080fd5b506001600160a01b0381358116916020013516611fd5565b6103f961211b565b610441612129565b610310600480360360208110156107ab57600080fd5b50356001600160a01b031661212f565b610441600480360360408110156107d157600080fd5b506001600160a01b0381351690602001356122c1565b6104156123c2565b6104416123d1565b610415612447565b610310600480360360e081101561081557600080fd5b506001600160a01b03813581169160208101359091169060408101359060608101359060ff6080820135169060a08101359060c00135612456565b610441612658565b6104416004803603604081101561086e57600080fd5b506001600160a01b038135811691602001351661265f565b6104416004803603604081101561089c57600080fd5b50803590602001356001600160a01b031661267c565b610310600480360360408110156108c857600080fd5b506001600160a01b03813581169160200135166126ec565b61031061294a565b6108f061437d565b5060408051610100810182526006546001600160a01b039081168252600754166020808301919091528183018890526060820187905260006080830181905260a0830181905260c0830181905260e08301528251601f850182900482028101820190935283835290916109819183918791879087908190840183828082843760009201829052509250612aec915050565b505050505050565b6040518060400160405280600681526020016504b696d204c560d41b81525081565b6009546001600160701b0380821692600160701b83049091169161ffff600160e01b8204811692600160f01b9092041690565b60006109eb3384846134b1565b5060015b92915050565b6006546001600160a01b031681565b600854600160a01b900460ff1681565b60005481565b6001600160a01b038316600090815260026020908152604080832033845290915281205460001914610adb576001600160a01b0384166000908152600260209081526040808320338452909152812054610a7a908463ffffffff61351316565b6001600160a01b038616600081815260026020908152604080832033808552908352928190208590558051858152905194955091937f8c5be1e5ebec7d5bd14f71427d1e84f3dd0314c0f7b2291e5b200ac8c7c3b9259281900390910190a3505b610ae6848484613563565b5060015b9392505050565b600b5481565b600954600160f01b900461ffff1681565b600e54600114610b51576040805162461bcd60e51b815260206004820152600f60248201526e12da5b54185a5c8e881313d0d2d151608a1b604482015290519081900360640190fd5b6000600e5560055460408051637e1c813560e11b815290516001600160a01b039092169163fc39026a91600480820192602092909190829003018186803b158015610b9b57600080fd5b505afa158015610baf573d6000803e3d6000fd5b505050506040513d6020811015610bc557600080fd5b50516001600160a01b03163314610c0d5760405162461bcd60e51b815260040180806020018281038252602681526020018061452f6026913960400191505060405180910390fd5b600d54610100900460ff1615610c5f576040805162461bcd60e51b81526020600482015260126024820152714b696d506169723a20696d6d757461626c6560701b604482015290519081900360640190fd5b600d5460ff1615158315151415610cb2576040805162461bcd60e51b81526020600482015260126024820152714b696d506169723a206e6f2075706461746560701b604482015290519081900360640190fd5b6009546001600160701b038381169116148015610ce357506009546001600160701b03828116600160701b90920416145b610d26576040805162461bcd60e51b815260206004820152600f60248201526e12da5b54185a5c8e8819985a5b1959608a1b604482015290519081900360640190fd5b600954600090610d49906001600160701b0380821691600160701b90041661361d565b600d546040805160ff90921615158252861515602083015280519293507fb6a86710bde53aa7fb1b3856279e2af5b476d53e2dd0902cf17a0911b5a43a8b92918290030190a1600d805460ff191685158015919091179091558490610dab5750805b610db6576000610dd6565b600954610dd6906001600160701b0380821691600160701b900416613842565b600c5550506001600e555050565b7f6e71edae12b1b97f4d1f60370fef10105fa2faae0126114a169c64845d6126c981565b601281565b60035481565b600a5481565b600560009054906101000a90046001600160a01b03166001600160a01b0316638da5cb5b6040518163ffffffff1660e01b815260040160206040518083038186803b158015610e6757600080fd5b505afa158015610e7b573d6000803e3d6000fd5b505050506040513d6020811015610e9157600080fd5b50516001600160a01b03163314610edd576040805162461bcd60e51b815260206004820152601d60248201526000805160206143f7833981519152604482015290519081900360640190fd5b600e54600114610f26576040805162461bcd60e51b815260206004820152600f60248201526e12da5b54185a5c8e881313d0d2d151608a1b604482015290519081900360640190fd5b6000600e55600d54610100900460ff1615610f88576040805162461bcd60e51b815260206004820152601a60248201527f4b696d506169723a20616c726561647920696d6d757461626c65000000000000604482015290519081900360640190fd5b600d805461ff0019166101001790556040517f09122c41ae733a4d7740324d50e35fbd6ee85be3c1312a45596d8045150ab2f290600090a16001600e55565b6005546001600160a01b031633148015610feb5750600854600160a01b900460ff16155b611031576040805162461bcd60e51b815260206004820152601260248201527125b4b6a830b4b91d102327a92124a22222a760711b604482015290519081900360640190fd5b600680546001600160a01b038085166001600160a01b0319928316811790935560078054918516919092161790556040805163313ce56760e01b8152905163313ce56791600480820192602092909190829003018186803b15801561109557600080fd5b505afa1580156110a9573d6000803e3d6000fd5b505050506040513d60208110156110bf57600080fd5b505160ff16600a90810a90556040805163313ce56760e01b815290516001600160a01b0383169163313ce567916004808301926020929190829003018186803b15801561110b57600080fd5b505afa15801561111f573d6000803e3d6000fd5b505050506040513d602081101561113557600080fd5b505160ff16600a0a600b5550506008805460ff60a01b1916600160a01b179055565b600e546001146111a0576040805162461bcd60e51b815260206004820152600f60248201526e12da5b54185a5c8e881313d0d2d151608a1b604482015290519081900360640190fd5b6000600e5560055460408051634c21771560e01b815290516001600160a01b0390921691634c21771591600480820192602092909190829003018186803b1580156111ea57600080fd5b505afa1580156111fe573d6000803e3d6000fd5b505050506040513d602081101561121457600080fd5b50516001600160a01b0316331461125c5760405162461bcd60e51b815260040180806020018281038252602681526020018061446b6026913960400191505060405180910390fd5b6107d08261ffff161115801561127857506107d08161ffff1611155b6112b35760405162461bcd60e51b815260040180806020018281038252602e815260200180614417602e913960400191505060405180910390fd5b60008261ffff161180156112cb575060008161ffff16115b6113065760405162461bcd60e51b815260040180806020018281038252602e815260200180614501602e913960400191505060405180910390fd5b6009805461ffff60e01b1916600160e01b61ffff858116918202929092176001600160f01b0316600160f01b9285169283021790925560408051928352602083019190915280517fa4877b8ecb5a00ba277e4bceeeb187a669e7113649774dfbea05c259ce27f17b9281900390910190a150506001600e55565b60055460408051638da5cb5b60e01b815290516000926001600160a01b031691638da5cb5b916004808301926020929190829003018186803b1580156113c557600080fd5b505afa1580156113d9573d6000803e3d6000fd5b505050506040513d60208110156113ef57600080fd5b50516001600160a01b0316331461143b576040805162461bcd60e51b815260206004820152601d60248201526000805160206143f7833981519152604482015290519081900360640190fd5b60408051602481018690526001600160a01b038581166044830152606480830186905283518084039091018152608490920183526020820180516001600160e01b0316631cc6d2f960e31b17815292518251600094606094938b169392918291908083835b602083106114bf5780518252601f1990920191602091820191016114a0565b6001836020036101000a0380198251168184511680821785525050505050509050019150506000604051808303816000865af19150503d8060008114611521576040519150601f19603f3d011682016040523d82523d6000602084013e611526565b606091505b5091509150816115675760405162461bcd60e51b81526004018080602001828103825260228152602001806143d56022913960400191505060405180910390fd5b80806020019051602081101561157c57600080fd5b5051979650505050505050565b600954600160e01b900461ffff1681565b6107d081565b6000600e546001146115eb576040805162461bcd60e51b815260206004820152600f60248201526e12da5b54185a5c8e881313d0d2d151608a1b604482015290519081900360640190fd5b6000600e819055806115fb6109ab565b5050600654604080516370a0823160e01b815230600482015290519395509193506000926001600160a01b03909116916370a08231916024808301926020929190829003018186803b15801561165057600080fd5b505afa158015611664573d6000803e3d6000fd5b505050506040513d602081101561167a57600080fd5b5051600754604080516370a0823160e01b815230600482015290519293506000926001600160a01b03909216916370a0823191602480820192602092909190829003018186803b1580156116cd57600080fd5b505afa1580156116e1573d6000803e3d6000fd5b505050506040513d60208110156116f757600080fd5b505190506000611716836001600160701b03871663ffffffff61351316565b90506000611733836001600160701b03871663ffffffff61351316565b90506000611741878761361d565b90506000600860009054906101000a90046001600160a01b03166001600160a01b03166389fb4c666040518163ffffffff1660e01b815260040160206040518083038186803b15801561179357600080fd5b505afa1580156117a7573d6000803e3d6000fd5b505050506040513d60208110156117bd57600080fd5b5051905080611810576117f06103e86117e46117df878763ffffffff61395816565b6139bb565b9063ffffffff61351316565b60055490995061180b906001600160a01b03166103e8613a0d565b61185f565b61185c6001600160701b03891661182d868463ffffffff61395816565b8161183457fe5b046001600160701b03891661184f868563ffffffff61395816565b8161185657fe5b04613bc8565b98505b6000891161189e5760405162461bcd60e51b81526004018080602001828103825260268152602001806144456026913960400191505060405180910390fd5b6118a88a8a613a0d565b6118b28686613bde565b81156118dc576009546118d8906001600160701b0380821691600160701b900416613842565b600c555b6040805185815260208101859052815133927f4c209b5fc8ad50758f13e2e1088ba56a560dff690a1c6fef26394f4c03821c4f928290030190a250506001600e5550949695505050505050565b61193161437d565b5060408051610100810182526006546001600160a01b039081168252600754166020808301919091528183018990526060820188905260006080830181905260a0830181905260c0830181905260e08301528251601f860182900482028101820190935284835290916119c491839188918890889081908401838280828437600092019190915250889250612aec915050565b50505050505050565b60016020526000908152604090205481565b600c5481565b60046020526000908152604090205481565b600080600e54600114611a43576040805162461bcd60e51b815260206004820152600f60248201526e12da5b54185a5c8e881313d0d2d151608a1b604482015290519081900360640190fd5b6000600e81905580611a536109ab565b5050600654600754604080516370a0823160e01b815230600482015290519496509294506001600160a01b039182169391169160009184916370a08231916024808301926020929190829003018186803b158015611ab057600080fd5b505afa158015611ac4573d6000803e3d6000fd5b505050506040513d6020811015611ada57600080fd5b5051604080516370a0823160e01b815230600482015290519192506000916001600160a01b038516916370a08231916024808301926020929190829003018186803b158015611b2857600080fd5b505afa158015611b3c573d6000803e3d6000fd5b505050506040513d6020811015611b5257600080fd5b5051600854604080516302519da360e01b815230600482015290519293506000926001600160a01b03909216916302519da391602480820192602092909190829003018186803b158015611ba557600080fd5b505afa158015611bb9573d6000803e3d6000fd5b505050506040513d6020811015611bcf57600080fd5b505190506000611bdf888861361d565b90506000600860009054906101000a90046001600160a01b03166001600160a01b03166389fb4c666040518163ffffffff1660e01b815260040160206040518083038186803b158015611c3157600080fd5b505afa158015611c45573d6000803e3d6000fd5b505050506040513d6020811015611c5b57600080fd5b5051905080611c70848763ffffffff61395816565b81611c7757fe5b049a5080611c8b848663ffffffff61395816565b81611c9257fe5b04995060008b118015611ca5575060008a115b611ce05760405162461bcd60e51b81526004018080602001828103825260268152602001806144b96026913960400191505060405180910390fd5b611cea3084613cc7565b611cf5878d8d613e81565b611d00868d8c613e81565b604080516370a0823160e01b815230600482015290516001600160a01b038916916370a08231916024808301926020929190829003018186803b158015611d4657600080fd5b505afa158015611d5a573d6000803e3d6000fd5b505050506040513d6020811015611d7057600080fd5b5051604080516370a0823160e01b815230600482015290519196506001600160a01b038816916370a0823191602480820192602092909190829003018186803b158015611dbc57600080fd5b505afa158015611dd0573d6000803e3d6000fd5b505050506040513d6020811015611de657600080fd5b50519350611df48585613bde565b8115611e1e57600954611e1a906001600160701b0380821691600160701b900416613842565b600c555b604080518c8152602081018c905281516001600160a01b038f169233927fdccd412f0b1252819cb1fd330b93224ca42612892bb3f4f789976e6d81936496929081900390910190a35050505050505050506001600e81905550915091565b6008546001600160a01b031681565b6040518060400160405280600681526020016504b494d2d4c560d41b81525081565b600d5460ff1681565b600854604080516323b872dd60e01b81523360048201526001600160a01b03858116602483015260448201859052915160009392909216916323b872dd9160648082019260209290919082900301818787803b158015611f1557600080fd5b505af1158015611f29573d6000803e3d6000fd5b505050506040513d6020811015611f3f57600080fd5b5050600854604080516302519da360e01b815233600482015290516001600160a01b03909216916302519da391602480820192602092909190829003018186803b158015611f8c57600080fd5b505afa158015611fa0573d6000803e3d6000fd5b505050506040513d6020811015611fb657600080fd5b5051336000908152600160208190526040909120919091559392505050565b60055460408051638da5cb5b60e01b815290516000926001600160a01b031691638da5cb5b916004808301926020929190829003018186803b15801561201a57600080fd5b505afa15801561202e573d6000803e3d6000fd5b505050506040513d602081101561204457600080fd5b50516001600160a01b03163314612090576040805162461bcd60e51b815260206004820152601d60248201526000805160206143f7833981519152604482015290519081900360640190fd5b826001600160a01b0316634420e486836040518263ffffffff1660e01b815260040180826001600160a01b03166001600160a01b03168152602001915050602060405180830381600087803b1580156120e857600080fd5b505af11580156120fc573d6000803e3d6000fd5b505050506040513d602081101561211257600080fd5b50519392505050565b600d54610100900460ff1681565b6103e881565b600e54600114612178576040805162461bcd60e51b815260206004820152600f60248201526e12da5b54185a5c8e881313d0d2d151608a1b604482015290519081900360640190fd5b6000600e55600654600754600954604080516370a0823160e01b815230600482015290516001600160a01b0394851694909316926122279285928792612222926001600160701b03169185916370a0823191602480820192602092909190829003018186803b1580156121ea57600080fd5b505afa1580156121fe573d6000803e3d6000fd5b505050506040513d602081101561221457600080fd5b50519063ffffffff61351316565b613e81565b600954604080516370a0823160e01b8152306004820152905161228e928492879261222292600160701b90046001600160701b0316916001600160a01b038616916370a0823191602480820192602092909190829003018186803b1580156121ea57600080fd5b6040517f21ad22495c9c75cd1c94756f91824e779c0c8a8e168b267c790df464fe056b7990600090a150506001600e5550565b60055460408051638da5cb5b60e01b815290516000926001600160a01b031691638da5cb5b916004808301926020929190829003018186803b15801561230657600080fd5b505afa15801561231a573d6000803e3d6000fd5b505050506040513d602081101561233057600080fd5b50516001600160a01b0316331461237c576040805162461bcd60e51b815260206004820152601d60248201526000805160206143f7833981519152604482015290519081900360640190fd5b826001600160a01b0316634c081138836040518263ffffffff1660e01b815260040180828152602001915050602060405180830381600087803b1580156120e857600080fd5b6005546001600160a01b031681565b600854604080516344fda63360e11b815290516000926001600160a01b0316916389fb4c66916004808301926020929190829003018186803b15801561241657600080fd5b505afa15801561242a573d6000803e3d6000fd5b505050506040513d602081101561244057600080fd5b5051905090565b6007546001600160a01b031681565b428410156124a0576040805162461bcd60e51b8152602060048201526012602482015271155b9a5cddd85c158c8e881156141254915160721b604482015290519081900360640190fd5b6003546001600160a01b0380891660008181526004602090815260408083208054600180820190925582517f6e71edae12b1b97f4d1f60370fef10105fa2faae0126114a169c64845d6126c98186015280840196909652958d166060860152608085018c905260a085019590955260c08085018b90528151808603909101815260e08501825280519083012061190160f01b6101008601526101028501969096526101228085019690965280518085039096018652610142840180825286519683019690962095839052610162840180825286905260ff89166101828501526101a284018890526101c28401879052519193926101e280820193601f1981019281900390910190855afa1580156125bb573d6000803e3d6000fd5b5050604051601f1901519150506001600160a01b038116158015906125f15750886001600160a01b0316816001600160a01b0316145b612642576040805162461bcd60e51b815260206004820152601c60248201527f556e697377617056323a20494e56414c49445f5349474e415455524500000000604482015290519081900360640190fd5b61264d8989896134b1565b505050505050505050565b620186a081565b600260209081526000928352604080842090915290825290205481565b60065460009081906001600160a01b038481169116146126a957600954600160f01b900461ffff166126b8565b600954600160e01b900461ffff165b6009549091506126e490859085906001600160701b0380821691600160701b90041661ffff861661401b565b949350505050565b600560009054906101000a90046001600160a01b03166001600160a01b0316638da5cb5b6040518163ffffffff1660e01b815260040160206040518083038186803b15801561273a57600080fd5b505afa15801561274e573d6000803e3d6000fd5b505050506040513d602081101561276457600080fd5b50516001600160a01b031633146127b0576040805162461bcd60e51b815260206004820152601d60248201526000805160206143f7833981519152604482015290519081900360640190fd5b600e546001146127f9576040805162461bcd60e51b815260206004820152600f60248201526e12da5b54185a5c8e881313d0d2d151608a1b604482015290519081900360640190fd5b6000600e556006546001600160a01b0383811691161480159061282a57506007546001600160a01b03838116911614155b612874576040805162461bcd60e51b815260206004820152601660248201527525b4b6a830b4b91d1034b73b30b634b2103a37b5b2b760511b604482015290519081900360640190fd5b6129008282846001600160a01b03166370a08231306040518263ffffffff1660e01b815260040180826001600160a01b03166001600160a01b0316815260200191505060206040518083038186803b1580156128cf57600080fd5b505afa1580156128e3573d6000803e3d6000fd5b505050506040513d60208110156128f957600080fd5b5051613e81565b604080516001600160a01b0383811682529151918416917f368a9dc863ecb94b5ba32a682e26295b10d9c2666fad7d785ebdf262c3c524139181900360200190a250506001600e55565b600e54600114612993576040805162461bcd60e51b815260206004820152600f60248201526e12da5b54185a5c8e881313d0d2d151608a1b604482015290519081900360640190fd5b6000600e819055600654604080516370a0823160e01b815230600482015290516001600160a01b03909216916370a0823191602480820192602092909190829003018186803b1580156129e557600080fd5b505afa1580156129f9573d6000803e3d6000fd5b505050506040513d6020811015612a0f57600080fd5b5051600754604080516370a0823160e01b815230600482015290519293506000926001600160a01b03909216916370a0823191602480820192602092909190829003018186803b158015612a6257600080fd5b505afa158015612a76573d6000803e3d6000fd5b505050506040513d6020811015612a8c57600080fd5b505190508115801590612a9e57508015155b612ad95760405162461bcd60e51b81526004018080602001828103825260288152602001806144916028913960400191505060405180910390fd5b612ae38282613bde565b50506001600e55565b600e54600114612b35576040805162461bcd60e51b815260206004820152600f60248201526e12da5b54185a5c8e881313d0d2d151608a1b604482015290519081900360640190fd5b6000600e556040840151151580612b50575060008460600151115b612b8b5760405162461bcd60e51b81526004018080602001828103825260238152602001806145556023913960400191505060405180910390fd5b600080600080612b996109ab565b9350935093509350836001600160701b03168860400151108015612bc95750826001600160701b03168860600151105b612c1a576040805162461bcd60e51b815260206004820152601f60248201527f4b696d506169723a20494e53554646494349454e545f4c495155494449545900604482015290519081900360640190fd5b87516001600160a01b03888116911614801590612c4d575087602001516001600160a01b0316876001600160a01b031614155b612c94576040805162461bcd60e51b81526020600482015260136024820152724b696d506169723a20494e56414c49445f544f60681b604482015290519081900360640190fd5b604088015115612cb157612cb18860000151888a60400151613e81565b606088015115612cce57612cce8860200151888a60600151613e81565b855115612dc857866001600160a01b03166310d1e85c338a604001518b606001518a6040518563ffffffff1660e01b815260040180856001600160a01b03166001600160a01b0316815260200184815260200183815260200180602001828103825283818151815260200191508051906020019080838360005b83811015612d60578181015183820152602001612d48565b50505050905090810190601f168015612d8d5780820380516001836020036101000a031916815260200191505b5095505050505050600060405180830381600087803b158015612daf57600080fd5b505af1158015612dc3573d6000803e3d6000fd5b505050505b8751604080516370a0823160e01b815230600482015290516001600160a01b03909216916370a0823191602480820192602092909190829003018186803b158015612e1257600080fd5b505afa158015612e26573d6000803e3d6000fd5b505050506040513d6020811015612e3c57600080fd5b50516080890152602088810151604080516370a0823160e01b815230600482015290516001600160a01b03909216926370a0823192602480840193829003018186803b158015612e8b57600080fd5b505afa158015612e9f573d6000803e3d6000fd5b505050506040513d6020811015612eb557600080fd5b505160a0890152604088015160808901516000916001600160701b0387160310612ee0576000612ef7565b8860400151856001600160701b0316038960800151035b905060008960600151856001600160701b0316038a60a0015111612f1c576000612f33565b8960600151856001600160701b0316038a60a00151035b90506000821180612f445750600081115b612f7f5760405162461bcd60e51b81526004018080602001828103825260228152602001806144df6022913960400191505060405180910390fd5b620186a0612f978361ffff871663ffffffff61395816565b81612f9e57fe5b0460c08b0152620186a0612fbc8261ffff861663ffffffff61395816565b81612fc357fe5b0460e08b01526000806001600160a01b038916612fe157600061305b565b60055460408051631c60f51f60e21b81526001600160a01b038c8116600483015291519190921691637183d47c916024808301926020929190829003018186803b15801561302e57600080fd5b505afa158015613042573d6000803e3d6000fd5b505050506040513d602081101561305857600080fd5b50515b905080156131205783156130c6576402540be40061309361ffff8816613087878563ffffffff61395816565b9063ffffffff61395816565b8161309a57fe5b0491506130b4828d60c0015161351390919063ffffffff16565b60c08d01528b516130c6908a84613e81565b8215613120576402540be4006130ea61ffff8716613087868563ffffffff61395816565b816130f157fe5b04915061310b828d60e0015161351390919063ffffffff16565b60e08d015260208c0151613120908a84613e81565b600d5460ff16156132885760055460408051634cadad5760e11b8152815160009384936001600160a01b039091169263995b5aae9260048083019392829003018186803b15801561317057600080fd5b505afa158015613184573d6000803e3d6000fd5b505050506040513d604081101561319a57600080fd5b50805160209091015190925090506001600160a01b03811615613285576131ce82613087620186a08663ffffffff61351316565b915085156132295766038d7ea4c680006131f661ffff8a16613087898663ffffffff61395816565b816131fd57fe5b049350613217848f60c0015161351390919063ffffffff16565b60c08f01528d51613229908286613e81565b84156132855766038d7ea4c6800061324f61ffff8916613087888663ffffffff61395816565b8161325657fe5b049350613270848f60e0015161351390919063ffffffff16565b60e08f015260208e0151613285908286613e81565b50505b831561330a578b51604080516370a0823160e01b815230600482015290516001600160a01b03909216916370a0823191602480820192602092909190829003018186803b1580156132d857600080fd5b505afa1580156132ec573d6000803e3d6000fd5b505050506040513d602081101561330257600080fd5b505160808d01525b821561338a576020808d0151604080516370a0823160e01b815230600482015290516001600160a01b03909216926370a0823192602480840193829003018186803b15801561335857600080fd5b505afa15801561336c573d6000803e3d6000fd5b505050506040513d602081101561338257600080fd5b505160a08d01525b505060006133a98b60c001518c6080015161351390919063ffffffff16565b905060006133c88c60e001518d60a0015161351390919063ffffffff16565b90506133e6886001600160701b0316886001600160701b0316613842565b6133f08383613842565b1015613430576040805162461bcd60e51b815260206004820152600a6024820152694b696d506169723a204b60b01b604482015290519081900360640190fd5b50506134448a608001518b60a00151613bde565b6040808b01516060808d0151835186815260208101869052808501939093529082015290516001600160a01b038b169133917fd78ad95fa46c994b6551d0da85fc275fe613ce37657fb8d5e3d130840159d8229181900360800190a350506001600e555050505050505050565b6001600160a01b03808416600081815260026020908152604080832094871680845294825291829020859055815185815291517f8c5be1e5ebec7d5bd14f71427d1e84f3dd0314c0f7b2291e5b200ac8c7c3b9259281900390910190a3505050565b808203828111156109ef576040805162461bcd60e51b815260206004820152601560248201527464732d6d6174682d7375622d756e646572666c6f7760581b604482015290519081900360640190fd5b6001600160a01b03831660009081526001602052604090205461358c908263ffffffff61351316565b6001600160a01b0380851660009081526001602052604080822093909355908416815220546135c1908263ffffffff6141e916565b6001600160a01b0380841660008181526001602090815260409182902094909455805185815290519193928716927fddf252ad1be2c89b69c2b068fc378daa952ba7f163c4a11628f55a4df523b3ef92918290030190a3505050565b600d5460009060ff1615613633575060006109ef565b60055460408051634cadad5760e11b8152815160009384936001600160a01b039091169263995b5aae9260048083019392829003018186803b15801561367857600080fd5b505afa15801561368c573d6000803e3d6000fd5b505050506040513d60408110156136a257600080fd5b508051602091820151600c54600854604080516344fda63360e11b815290516001600160a01b0380861615159a509598509396509194600094909116926389fb4c66926004808201939291829003018186803b15801561370157600080fd5b505afa158015613715573d6000803e3d6000fd5b505050506040513d602081101561372b57600080fd5b50519050841561382c57811561382757600061375c6117df896001600160701b0316896001600160701b0316613842565b90506000613769846139bb565b9050808211156138245760006137a260648861378e620186a08363ffffffff61395816565b8161379557fe5b049063ffffffff61351316565b905060006137cb60646130876137be878763ffffffff61351316565b889063ffffffff61395816565b905060006137ff6137e385606463ffffffff61395816565b6137f3878663ffffffff61395816565b9063ffffffff6141e916565b9050600081838161380c57fe5b049050801561381f5761381f8982613a0d565b505050505b50505b613838565b8115613838576000600c555b5050505092915050565b600d5460009060ff161561394857600a5460009061386e85670de0b6b3a764000063ffffffff61395816565b8161387557fe5b0490506000600b54613898670de0b6b3a76400008661395890919063ffffffff16565b8161389f57fe5b0490506000670de0b6b3a76400006138bd848463ffffffff61395816565b816138c457fe5b049050600061391a670de0b6b3a76400006138e5858063ffffffff61395816565b816138ec57fe5b04670de0b6b3a7640000613906878063ffffffff61395816565b8161390d57fe5b049063ffffffff6141e916565b9050670de0b6b3a7640000613935838363ffffffff61395816565b8161393c57fe5b049450505050506109ef565b610aea838363ffffffff61395816565b60008115806139735750508082028282828161397057fe5b04145b6109ef576040805162461bcd60e51b815260206004820152601460248201527364732d6d6174682d6d756c2d6f766572666c6f7760601b604482015290519081900360640190fd5b600060038211156139fe575080600160028204015b818110156139f8578091506002818285816139e757fe5b0401816139f057fe5b0490506139d0565b50613a08565b8115613a08575060015b919050565b60085460408051631f132a7360e21b81526001600160a01b0385811660048301526024820185905291519190921691637c4ca9cc91604480830192600092919082900301818387803b158015613a6257600080fd5b505af1158015613a76573d6000803e3d6000fd5b50505050600860009054906101000a90046001600160a01b03166001600160a01b03166389fb4c666040518163ffffffff1660e01b815260040160206040518083038186803b158015613ac857600080fd5b505afa158015613adc573d6000803e3d6000fd5b505050506040513d6020811015613af257600080fd5b5051600055600854604080516302519da360e01b81526001600160a01b038581166004830152915191909216916302519da3916024808301926020929190829003018186803b158015613b4457600080fd5b505afa158015613b58573d6000803e3d6000fd5b505050506040513d6020811015613b6e57600080fd5b50516001600160a01b03831660008181526001602090815260408083209490945583518581529351929391927fddf252ad1be2c89b69c2b068fc378daa952ba7f163c4a11628f55a4df523b3ef9281900390910190a35050565b6000818310613bd75781610aea565b5090919050565b6001600160701b038211801590613bfc57506001600160701b038111155b613c41576040805162461bcd60e51b81526020600482015260116024820152704b696d506169723a204f564552464c4f5760781b604482015290519081900360640190fd5b600980546dffffffffffffffffffffffffffff19166001600160701b038481169182176dffffffffffffffffffffffffffff60701b1916600160701b9185169182021790925560408051918252602082019290925281517f1c411e9a96e071241c2f21f7726b17ae89e3cab4c78be50e062b03a9fffbbad1929181900390910190a15050565b60085460408051630f77670360e11b81526001600160a01b0385811660048301526024820185905291519190921691631eeece0691604480830192600092919082900301818387803b158015613d1c57600080fd5b505af1158015613d30573d6000803e3d6000fd5b50505050600860009054906101000a90046001600160a01b03166001600160a01b03166389fb4c666040518163ffffffff1660e01b815260040160206040518083038186803b158015613d8257600080fd5b505afa158015613d96573d6000803e3d6000fd5b505050506040513d6020811015613dac57600080fd5b5051600055600854604080516302519da360e01b81526001600160a01b038581166004830152915191909216916302519da3916024808301926020929190829003018186803b158015613dfe57600080fd5b505afa158015613e12573d6000803e3d6000fd5b505050506040513d6020811015613e2857600080fd5b50516001600160a01b0383166000818152600160209081526040808320949094558351858152935191937fddf252ad1be2c89b69c2b068fc378daa952ba7f163c4a11628f55a4df523b3ef929081900390910190a35050565b604080518082018252601981527f7472616e7366657228616464726573732c75696e74323536290000000000000060209182015281516001600160a01b0385811660248301526044808301869052845180840390910181526064909201845291810180516001600160e01b031663a9059cbb60e01b1781529251815160009460609489169392918291908083835b60208310613f2e5780518252601f199092019160209182019101613f0f565b6001836020036101000a0380198251168184511680821785525050505050509050019150506000604051808303816000865af19150503d8060008114613f90576040519150601f19603f3d011682016040523d82523d6000602084013e613f95565b606091505b5091509150818015613fc3575080511580613fc35750808060200190516020811015613fc057600080fd5b50515b614014576040805162461bcd60e51b815260206004820152601860248201527f4b696d506169723a205452414e534645525f4641494c45440000000000000000604482015290519081900360640190fd5b5050505050565b600d5460009060ff161561415e57614056620186a0614040888563ffffffff61395816565b8161404757fe5b8891900463ffffffff61351316565b955060006140648585613842565b9050600a5485670de0b6b3a7640000028161407b57fe5b049450600b5484670de0b6b3a7640000028161409357fe5b600654919004945060009081906001600160a01b038981169116146140b95785876140bc565b86865b60065491935091506001600160a01b038981169116146140f157600b5489670de0b6b3a764000002816140eb57fe5b04614108565b600a5489670de0b6b3a7640000028161410657fe5b045b98506000614119838b018584614238565b6006549083039150670de0b6b3a7640000906001600160a01b038b811691161461414557600a54614149565b600b545b82028161415257fe5b049450505050506141e0565b60065460009081906001600160a01b0388811691161461417f578486614182565b85855b90925090506141aa61419d620186a08663ffffffff61351316565b899063ffffffff61395816565b97506141c3886137f384620186a063ffffffff61395816565b6141d3898363ffffffff61395816565b816141da57fe5b04925050505b95945050505050565b808201828110156109ef576040805162461bcd60e51b815260206004820152601460248201527364732d6d6174682d6164642d6f766572666c6f7760601b604482015290519081900360640190fd5b6000805b60ff8110156142f05782600061425287836142f9565b9050858110156142885760006142688887614349565b828803670de0b6b3a7640000028161427c57fe5b049590950194506142af565b60006142948887614349565b878303670de0b6b3a764000002816142a857fe5b0490950394505b818511156142d1576001828603116142cc57849350505050610aea565b6142e6565b6001858303116142e657849350505050610aea565b505060010161423c565b50909392505050565b6000670de0b6b3a76400008281858181800204028161431457fe5b04028161431d57fe5b04670de0b6b3a764000080848181800204028161433657fe5b0485028161434057fe5b04019392505050565b6000670de0b6b3a7640000838181800204028161436257fe5b04670de0b6b3a7640000808480020485600302028161434057fe5b60405180610100016040528060006001600160a01b0316815260200160006001600160a01b03168152602001600081526020016000815260200160008152602001600081526020016000815260200160008152509056fe4b696d506169723a3a77697468647261773a207769746864726177206661696c65644b696d506169723a206f6e6c7920666163746f72792773206f776e65720000004b696d506169723a2066656550657263656e74206d7573746e27742065786365656420746865206d6178696d756d4b696d506169723a20494e53554646494349454e545f4c49515549444954595f4d494e5445444b696d506169723a206f6e6c7920666163746f7279277320666565416d6f756e744f776e65724b696d506169723a206c697175696469747920726174696f206e6f7420696e697469616c697a65644b696d506169723a20494e53554646494349454e545f4c49515549444954595f4255524e45444b696d506169723a20494e53554646494349454e545f494e5055545f414d4f554e544b696d506169723a2066656550657263656e74206d7573746e27742065786365656420746865206d696e696d756d4b696d506169723a206f6e6c7920666163746f7279277320736574537461626c654f776e65724b696d506169723a20494e53554646494349454e545f4f55545055545f414d4f554e54a2646970667358221220ac37bc073732d77bf83ced9f439d61eb2f11b9a324e5599e4f41a1085a9a563964736f6c63430006050033454950373132446f6d61696e28737472696e67206e616d652c737472696e672076657273696f6e2c75696e7432353620636861696e49642c6164647265737320766572696679696e67436f6e747261637429",
  "linkReferences": {},
  "deployedLinkReferences": {}
}