{
  "_format": "hh-sol-artifact-1",
  "contractName": "LP404",
  "sourceName": "contracts/extensions/LP404.sol",
  "abi": [
    {
      "inputs": [
        {
          "internalType": "string",
          "name": "_name",
          "type": "string"
        },
        {
          "internalType": "string",
          "name": "_symbol",
          "type": "string"
        },
        {
          "internalType": "string",
          "name": "_traitCID",
          "type": "string"
        },
        {
          "internalType": "string",
          "name": "_description",
          "type": "string"
        },
        {
          "internalType": "uint8",
          "name": "_decimals",
          "type": "uint8"
        },
        {
          "internalType": "address",
          "name": "_initialOwner",
          "type": "address"
        }
      ],
      "stateMutability": "nonpayable",
      "type": "constructor"
    },
    {
      "inputs": [],
      "name": "AlreadyExists",
      "type": "error"
    },
    {
      "inputs": [],
      "name": "DecimalsTooLow",
      "type": "error"
    },
    {
      "inputs": [],
      "name": "InsufficientAllowance",
      "type": "error"
    },
    {
      "inputs": [],
      "name": "InvalidApproval",
      "type": "error"
    },
    {
      "inputs": [],
      "name": "InvalidExemption",
      "type": "error"
    },
    {
      "inputs": [],
      "name": "InvalidOperator",
      "type": "error"
    },
    {
      "inputs": [],
      "name": "InvalidRecipient",
      "type": "error"
    },
    {
      "inputs": [],
      "name": "InvalidSender",
      "type": "error"
    },
    {
      "inputs": [],
      "name": "InvalidSigner",
      "type": "error"
    },
    {
      "inputs": [],
      "name": "InvalidSpender",
      "type": "error"
    },
    {
      "inputs": [],
      "name": "InvalidTokenId",
      "type": "error"
    },
    {
      "inputs": [],
      "name": "LengthMisMatch",
      "type": "error"
    },
    {
      "inputs": [],
      "name": "MintLimitReached",
      "type": "error"
    },
    {
      "inputs": [],
      "name": "NotFound",
      "type": "error"
    },
    {
      "inputs": [
        {
          "internalType": "address",
          "name": "owner",
          "type": "address"
        }
      ],
      "name": "OwnableInvalidOwner",
      "type": "error"
    },
    {
      "inputs": [
        {
          "internalType": "address",
          "name": "account",
          "type": "address"
        }
      ],
      "name": "OwnableUnauthorizedAccount",
      "type": "error"
    },
    {
      "inputs": [],
      "name": "OwnedIndexOverflow",
      "type": "error"
    },
    {
      "inputs": [],
      "name": "PermitDeadlineExpired",
      "type": "error"
    },
    {
      "inputs": [],
      "name": "QueueEmpty",
      "type": "error"
    },
    {
      "inputs": [],
      "name": "QueueFull",
      "type": "error"
    },
    {
      "inputs": [],
      "name": "QueueOutOfBounds",
      "type": "error"
    },
    {
      "inputs": [],
      "name": "RecipientIsERC721TransferExempt",
      "type": "error"
    },
    {
      "inputs": [],
      "name": "Unauthorized",
      "type": "error"
    },
    {
      "inputs": [],
      "name": "UnsafeRecipient",
      "type": "error"
    },
    {
      "anonymous": false,
      "inputs": [
        {
          "indexed": true,
          "internalType": "address",
          "name": "owner",
          "type": "address"
        },
        {
          "indexed": true,
          "internalType": "address",
          "name": "spender",
          "type": "address"
        },
        {
          "indexed": false,
          "internalType": "uint256",
          "name": "value",
          "type": "uint256"
        }
      ],
      "name": "Approval",
      "type": "event"
    },
    {
      "anonymous": false,
      "inputs": [
        {
          "indexed": true,
          "internalType": "address",
          "name": "owner",
          "type": "address"
        },
        {
          "indexed": true,
          "internalType": "address",
          "name": "spender",
          "type": "address"
        },
        {
          "indexed": true,
          "internalType": "uint256",
          "name": "id",
          "type": "uint256"
        }
      ],
      "name": "Approval",
      "type": "event"
    },
    {
      "anonymous": false,
      "inputs": [
        {
          "indexed": true,
          "internalType": "address",
          "name": "owner",
          "type": "address"
        },
        {
          "indexed": true,
          "internalType": "address",
          "name": "operator",
          "type": "address"
        },
        {
          "indexed": false,
          "internalType": "bool",
          "name": "approved",
          "type": "bool"
        }
      ],
      "name": "ApprovalForAll",
      "type": "event"
    },
    {
      "anonymous": false,
      "inputs": [
        {
          "indexed": true,
          "internalType": "address",
          "name": "previousOwner",
          "type": "address"
        },
        {
          "indexed": true,
          "internalType": "address",
          "name": "newOwner",
          "type": "address"
        }
      ],
      "name": "OwnershipTransferred",
      "type": "event"
    },
    {
      "anonymous": false,
      "inputs": [
        {
          "indexed": true,
          "internalType": "address",
          "name": "from",
          "type": "address"
        },
        {
          "indexed": true,
          "internalType": "address",
          "name": "to",
          "type": "address"
        },
        {
          "indexed": false,
          "internalType": "uint256",
          "name": "amount",
          "type": "uint256"
        }
      ],
      "name": "Transfer",
      "type": "event"
    },
    {
      "anonymous": false,
      "inputs": [
        {
          "indexed": true,
          "internalType": "address",
          "name": "from",
          "type": "address"
        },
        {
          "indexed": true,
          "internalType": "address",
          "name": "to",
          "type": "address"
        },
        {
          "indexed": true,
          "internalType": "uint256",
          "name": "id",
          "type": "uint256"
        }
      ],
      "name": "Transfer",
      "type": "event"
    },
    {
      "inputs": [],
      "name": "DOMAIN_SEPARATOR",
      "outputs": [
        {
          "internalType": "bytes32",
          "name": "",
          "type": "bytes32"
        }
      ],
      "stateMutability": "view",
      "type": "function"
    },
    {
      "inputs": [],
      "name": "ID_ENCODING_PREFIX",
      "outputs": [
        {
          "internalType": "uint256",
          "name": "",
          "type": "uint256"
        }
      ],
      "stateMutability": "view",
      "type": "function"
    },
    {
      "inputs": [
        {
          "internalType": "address",
          "name": "",
          "type": "address"
        },
        {
          "internalType": "address",
          "name": "",
          "type": "address"
        }
      ],
      "name": "allowance",
      "outputs": [
        {
          "internalType": "uint256",
          "name": "",
          "type": "uint256"
        }
      ],
      "stateMutability": "view",
      "type": "function"
    },
    {
      "inputs": [
        {
          "internalType": "address",
          "name": "spender_",
          "type": "address"
        },
        {
          "internalType": "uint256",
          "name": "valueOrId_",
          "type": "uint256"
        }
      ],
      "name": "approve",
      "outputs": [
        {
          "internalType": "bool",
          "name": "",
          "type": "bool"
        }
      ],
      "stateMutability": "nonpayable",
      "type": "function"
    },
    {
      "inputs": [
        {
          "internalType": "uint256",
          "name": "",
          "type": "uint256"
        }
      ],
      "name": "attributes",
      "outputs": [
        {
          "internalType": "bytes32",
          "name": "dna",
          "type": "bytes32"
        }
      ],
      "stateMutability": "view",
      "type": "function"
    },
    {
      "inputs": [
        {
          "internalType": "address",
          "name": "",
          "type": "address"
        }
      ],
      "name": "balanceOf",
      "outputs": [
        {
          "internalType": "uint256",
          "name": "",
          "type": "uint256"
        }
      ],
      "stateMutability": "view",
      "type": "function"
    },
    {
      "inputs": [
        {
          "internalType": "address",
          "name": "_from",
          "type": "address"
        },
        {
          "internalType": "uint256",
          "name": "_value",
          "type": "uint256"
        }
      ],
      "name": "burnERC20",
      "outputs": [],
      "stateMutability": "nonpayable",
      "type": "function"
    },
    {
      "inputs": [],
      "name": "decimals",
      "outputs": [
        {
          "internalType": "uint8",
          "name": "",
          "type": "uint8"
        }
      ],
      "stateMutability": "view",
      "type": "function"
    },
    {
      "inputs": [],
      "name": "description",
      "outputs": [
        {
          "internalType": "string",
          "name": "",
          "type": "string"
        }
      ],
      "stateMutability": "view",
      "type": "function"
    },
    {
      "inputs": [
        {
          "internalType": "address",
          "name": "spender_",
          "type": "address"
        },
        {
          "internalType": "uint256",
          "name": "value_",
          "type": "uint256"
        }
      ],
      "name": "erc20Approve",
      "outputs": [
        {
          "internalType": "bool",
          "name": "",
          "type": "bool"
        }
      ],
      "stateMutability": "nonpayable",
      "type": "function"
    },
    {
      "inputs": [
        {
          "internalType": "address",
          "name": "owner_",
          "type": "address"
        }
      ],
      "name": "erc20BalanceOf",
      "outputs": [
        {
          "internalType": "uint256",
          "name": "",
          "type": "uint256"
        }
      ],
      "stateMutability": "view",
      "type": "function"
    },
    {
      "inputs": [],
      "name": "erc20TotalSupply",
      "outputs": [
        {
          "internalType": "uint256",
          "name": "",
          "type": "uint256"
        }
      ],
      "stateMutability": "view",
      "type": "function"
    },
    {
      "inputs": [
        {
          "internalType": "address",
          "name": "from_",
          "type": "address"
        },
        {
          "internalType": "address",
          "name": "to_",
          "type": "address"
        },
        {
          "internalType": "uint256",
          "name": "value_",
          "type": "uint256"
        }
      ],
      "name": "erc20TransferFrom",
      "outputs": [
        {
          "internalType": "bool",
          "name": "",
          "type": "bool"
        }
      ],
      "stateMutability": "nonpayable",
      "type": "function"
    },
    {
      "inputs": [
        {
          "internalType": "address",
          "name": "spender_",
          "type": "address"
        },
        {
          "internalType": "uint256",
          "name": "id_",
          "type": "uint256"
        }
      ],
      "name": "erc721Approve",
      "outputs": [],
      "stateMutability": "nonpayable",
      "type": "function"
    },
    {
      "inputs": [
        {
          "internalType": "address",
          "name": "owner_",
          "type": "address"
        }
      ],
      "name": "erc721BalanceOf",
      "outputs": [
        {
          "internalType": "uint256",
          "name": "",
          "type": "uint256"
        }
      ],
      "stateMutability": "view",
      "type": "function"
    },
    {
      "inputs": [],
      "name": "erc721TotalSupply",
      "outputs": [
        {
          "internalType": "uint256",
          "name": "",
          "type": "uint256"
        }
      ],
      "stateMutability": "view",
      "type": "function"
    },
    {
      "inputs": [
        {
          "internalType": "address",
          "name": "target_",
          "type": "address"
        }
      ],
      "name": "erc721TransferExempt",
      "outputs": [
        {
          "internalType": "bool",
          "name": "",
          "type": "bool"
        }
      ],
      "stateMutability": "view",
      "type": "function"
    },
    {
      "inputs": [
        {
          "internalType": "address",
          "name": "from_",
          "type": "address"
        },
        {
          "internalType": "address",
          "name": "to_",
          "type": "address"
        },
        {
          "internalType": "uint256",
          "name": "id_",
          "type": "uint256"
        }
      ],
      "name": "erc721TransferFrom",
      "outputs": [],
      "stateMutability": "nonpayable",
      "type": "function"
    },
    {
      "inputs": [],
      "name": "factory",
      "outputs": [
        {
          "internalType": "address",
          "name": "",
          "type": "address"
        }
      ],
      "stateMutability": "view",
      "type": "function"
    },
    {
      "inputs": [
        {
          "internalType": "uint256",
          "name": "",
          "type": "uint256"
        }
      ],
      "name": "getApproved",
      "outputs": [
        {
          "internalType": "address",
          "name": "",
          "type": "address"
        }
      ],
      "stateMutability": "view",
      "type": "function"
    },
    {
      "inputs": [],
      "name": "getERC721QueueLength",
      "outputs": [
        {
          "internalType": "uint256",
          "name": "",
          "type": "uint256"
        }
      ],
      "stateMutability": "view",
      "type": "function"
    },
    {
      "inputs": [
        {
          "internalType": "uint256",
          "name": "start_",
          "type": "uint256"
        },
        {
          "internalType": "uint256",
          "name": "count_",
          "type": "uint256"
        }
      ],
      "name": "getERC721TokensInQueue",
      "outputs": [
        {
          "internalType": "uint256[]",
          "name": "",
          "type": "uint256[]"
        }
      ],
      "stateMutability": "view",
      "type": "function"
    },
    {
      "inputs": [
        {
          "internalType": "uint256",
          "name": "tokenId",
          "type": "uint256"
        }
      ],
      "name": "getTokenAttributes",
      "outputs": [
        {
          "internalType": "string[]",
          "name": "",
          "type": "string[]"
        },
        {
          "internalType": "string[]",
          "name": "",
          "type": "string[]"
        },
        {
          "internalType": "bytes32",
          "name": "",
          "type": "bytes32"
        }
      ],
      "stateMutability": "view",
      "type": "function"
    },
    {
      "inputs": [
        {
          "internalType": "address",
          "name": "_factory",
          "type": "address"
        },
        {
          "internalType": "address",
          "name": "_pair",
          "type": "address"
        }
      ],
      "name": "initialize",
      "outputs": [],
      "stateMutability": "nonpayable",
      "type": "function"
    },
    {
      "inputs": [
        {
          "internalType": "address",
          "name": "",
          "type": "address"
        },
        {
          "internalType": "address",
          "name": "",
          "type": "address"
        }
      ],
      "name": "isApprovedForAll",
      "outputs": [
        {
          "internalType": "bool",
          "name": "",
          "type": "bool"
        }
      ],
      "stateMutability": "view",
      "type": "function"
    },
    {
      "inputs": [
        {
          "internalType": "address",
          "name": "to",
          "type": "address"
        },
        {
          "internalType": "uint256",
          "name": "amount",
          "type": "uint256"
        }
      ],
      "name": "mintERC20",
      "outputs": [],
      "stateMutability": "nonpayable",
      "type": "function"
    },
    {
      "inputs": [],
      "name": "minted",
      "outputs": [
        {
          "internalType": "uint256",
          "name": "",
          "type": "uint256"
        }
      ],
      "stateMutability": "view",
      "type": "function"
    },
    {
      "inputs": [],
      "name": "name",
      "outputs": [
        {
          "internalType": "string",
          "name": "",
          "type": "string"
        }
      ],
      "stateMutability": "view",
      "type": "function"
    },
    {
      "inputs": [
        {
          "internalType": "address",
          "name": "",
          "type": "address"
        }
      ],
      "name": "nonces",
      "outputs": [
        {
          "internalType": "uint256",
          "name": "",
          "type": "uint256"
        }
      ],
      "stateMutability": "view",
      "type": "function"
    },
    {
      "inputs": [
        {
          "internalType": "address",
          "name": "owner_",
          "type": "address"
        }
      ],
      "name": "owned",
      "outputs": [
        {
          "internalType": "uint256[]",
          "name": "",
          "type": "uint256[]"
        }
      ],
      "stateMutability": "view",
      "type": "function"
    },
    {
      "inputs": [],
      "name": "owner",
      "outputs": [
        {
          "internalType": "address",
          "name": "",
          "type": "address"
        }
      ],
      "stateMutability": "view",
      "type": "function"
    },
    {
      "inputs": [
        {
          "internalType": "uint256",
          "name": "id_",
          "type": "uint256"
        }
      ],
      "name": "ownerOf",
      "outputs": [
        {
          "internalType": "address",
          "name": "erc721Owner",
          "type": "address"
        }
      ],
      "stateMutability": "view",
      "type": "function"
    },
    {
      "inputs": [],
      "name": "pairContract",
      "outputs": [
        {
          "internalType": "address",
          "name": "",
          "type": "address"
        }
      ],
      "stateMutability": "view",
      "type": "function"
    },
    {
      "inputs": [
        {
          "internalType": "address",
          "name": "owner_",
          "type": "address"
        },
        {
          "internalType": "address",
          "name": "spender_",
          "type": "address"
        },
        {
          "internalType": "uint256",
          "name": "value_",
          "type": "uint256"
        },
        {
          "internalType": "uint256",
          "name": "deadline_",
          "type": "uint256"
        },
        {
          "internalType": "uint8",
          "name": "v_",
          "type": "uint8"
        },
        {
          "internalType": "bytes32",
          "name": "r_",
          "type": "bytes32"
        },
        {
          "internalType": "bytes32",
          "name": "s_",
          "type": "bytes32"
        }
      ],
      "name": "permit",
      "outputs": [],
      "stateMutability": "nonpayable",
      "type": "function"
    },
    {
      "inputs": [],
      "name": "renounceOwnership",
      "outputs": [],
      "stateMutability": "nonpayable",
      "type": "function"
    },
    {
      "inputs": [
        {
          "internalType": "address",
          "name": "from_",
          "type": "address"
        },
        {
          "internalType": "address",
          "name": "to_",
          "type": "address"
        },
        {
          "internalType": "uint256",
          "name": "id_",
          "type": "uint256"
        }
      ],
      "name": "safeTransferFrom",
      "outputs": [],
      "stateMutability": "nonpayable",
      "type": "function"
    },
    {
      "inputs": [
        {
          "internalType": "address",
          "name": "from_",
          "type": "address"
        },
        {
          "internalType": "address",
          "name": "to_",
          "type": "address"
        },
        {
          "internalType": "uint256",
          "name": "id_",
          "type": "uint256"
        },
        {
          "internalType": "bytes",
          "name": "data_",
          "type": "bytes"
        }
      ],
      "name": "safeTransferFrom",
      "outputs": [],
      "stateMutability": "nonpayable",
      "type": "function"
    },
    {
      "inputs": [
        {
          "internalType": "address",
          "name": "_admin",
          "type": "address"
        },
        {
          "internalType": "bool",
          "name": "_state",
          "type": "bool"
        }
      ],
      "name": "setAdminPrivileges",
      "outputs": [],
      "stateMutability": "nonpayable",
      "type": "function"
    },
    {
      "inputs": [
        {
          "internalType": "address",
          "name": "operator_",
          "type": "address"
        },
        {
          "internalType": "bool",
          "name": "approved_",
          "type": "bool"
        }
      ],
      "name": "setApprovalForAll",
      "outputs": [],
      "stateMutability": "nonpayable",
      "type": "function"
    },
    {
      "inputs": [
        {
          "internalType": "uint256",
          "name": "_tokenId",
          "type": "uint256"
        },
        {
          "internalType": "string[]",
          "name": "_traitTypes",
          "type": "string[]"
        },
        {
          "internalType": "string[]",
          "name": "_values",
          "type": "string[]"
        },
        {
          "internalType": "bytes32",
          "name": "_dna",
          "type": "bytes32"
        }
      ],
      "name": "setAttributes",
      "outputs": [],
      "stateMutability": "nonpayable",
      "type": "function"
    },
    {
      "inputs": [
        {
          "internalType": "string",
          "name": "_traitCID",
          "type": "string"
        },
        {
          "internalType": "string",
          "name": "_description",
          "type": "string"
        }
      ],
      "name": "setCollectionInfo",
      "outputs": [],
      "stateMutability": "nonpayable",
      "type": "function"
    },
    {
      "inputs": [
        {
          "internalType": "address",
          "name": "account_",
          "type": "address"
        },
        {
          "internalType": "bool",
          "name": "value_",
          "type": "bool"
        }
      ],
      "name": "setERC721TransferExempt",
      "outputs": [],
      "stateMutability": "nonpayable",
      "type": "function"
    },
    {
      "inputs": [
        {
          "internalType": "bool",
          "name": "state_",
          "type": "bool"
        }
      ],
      "name": "setSelfERC721TransferExempt",
      "outputs": [],
      "stateMutability": "nonpayable",
      "type": "function"
    },
    {
      "inputs": [
        {
          "internalType": "bytes4",
          "name": "interfaceId",
          "type": "bytes4"
        }
      ],
      "name": "supportsInterface",
      "outputs": [
        {
          "internalType": "bool",
          "name": "",
          "type": "bool"
        }
      ],
      "stateMutability": "view",
      "type": "function"
    },
    {
      "inputs": [],
      "name": "symbol",
      "outputs": [
        {
          "internalType": "string",
          "name": "",
          "type": "string"
        }
      ],
      "stateMutability": "view",
      "type": "function"
    },
    {
      "inputs": [
        {
          "internalType": "uint256",
          "name": "_id",
          "type": "uint256"
        }
      ],
      "name": "tokenURI",
      "outputs": [
        {
          "internalType": "string",
          "name": "",
          "type": "string"
        }
      ],
      "stateMutability": "view",
      "type": "function"
    },
    {
      "inputs": [],
      "name": "totalSupply",
      "outputs": [
        {
          "internalType": "uint256",
          "name": "",
          "type": "uint256"
        }
      ],
      "stateMutability": "view",
      "type": "function"
    },
    {
      "inputs": [],
      "name": "traitCID",
      "outputs": [
        {
          "internalType": "string",
          "name": "",
          "type": "string"
        }
      ],
      "stateMutability": "view",
      "type": "function"
    },
    {
      "inputs": [
        {
          "internalType": "address",
          "name": "to_",
          "type": "address"
        },
        {
          "internalType": "uint256",
          "name": "value_",
          "type": "uint256"
        }
      ],
      "name": "transfer",
      "outputs": [
        {
          "internalType": "bool",
          "name": "",
          "type": "bool"
        }
      ],
      "stateMutability": "nonpayable",
      "type": "function"
    },
    {
      "inputs": [
        {
          "internalType": "address",
          "name": "from_",
          "type": "address"
        },
        {
          "internalType": "address",
          "name": "to_",
          "type": "address"
        },
        {
          "internalType": "uint256",
          "name": "valueOrId_",
          "type": "uint256"
        }
      ],
      "name": "transferFrom",
      "outputs": [
        {
          "internalType": "bool",
          "name": "",
          "type": "bool"
        }
      ],
      "stateMutability": "nonpayable",
      "type": "function"
    },
    {
      "inputs": [
        {
          "internalType": "address",
          "name": "newOwner",
          "type": "address"
        }
      ],
      "name": "transferOwnership",
      "outputs": [],
      "stateMutability": "nonpayable",
      "type": "function"
    },
    {
      "inputs": [
        {
          "internalType": "bytes32",
          "name": "",
          "type": "bytes32"
        }
      ],
      "name": "uniqueness",
      "outputs": [
        {
          "internalType": "bool",
          "name": "",
          "type": "bool"
        }
      ],
      "stateMutability": "view",
      "type": "function"
    },
    {
      "inputs": [],
      "name": "units",
      "outputs": [
        {
          "internalType": "uint256",
          "name": "",
          "type": "uint256"
        }
      ],
      "stateMutability": "view",
      "type": "function"
    }
  ],
  "bytecode": "0x6014805460ff60a01b19169055610140604052601261010090815271249030b69030903232b9b1b934b83a34b7b760711b6101205260169062000043908262000d94565b5060408051808201909152600f81526e6e66742d7669657765722e636f6d2f60881b602082015260179062000079908262000d94565b503480156200008757600080fd5b506040516200494a3803806200494a833981016040819052620000aa9162000f41565b858583836001600160a01b038116620000dd57604051631e4fbdf760e01b81526000600482015260240160405180910390fd5b620000e881620001b6565b506003620000f7848262000d94565b50600462000106838262000d94565b5060128160ff1610156200012d576040516398790fd560e01b815260040160405180910390fd5b60ff811660808190526200014390600a62001131565b60a0524660c0526200015462000206565b60e052506200016991508290506001620002a2565b6001600160a01b0381166000908152601260205260409020805460ff1916600117905560156200019a858262000d94565b506016620001a9848262000d94565b505050505050506200125e565b600080546001600160a01b038381166001600160a01b0319831681178455604051919092169283917f8be0079c531659141344cd1fd0a4f28419497f9722a3daafe3b4186f6b6457e09190a35050565b60007f8b73c3c69bb8fe3d512ecc4cf759cc79239f7b179b0ffacaa9a75d522b39400f60036040516200023a919062001149565b6040805191829003822060208301939093528101919091527fc89efdaa54c0f20c7adf612882df0950f5a951637e0307cdcb4c672f298b8bc660608201524660808201523060a082015260c00160405160208183030381529060405280519060200120905090565b6001600160a01b038216620002ca5760405163a41e3d3f60e01b815260040160405180910390fd5b8015620002e257620002dc8262000318565b620002ed565b620002ed8262000355565b6001600160a01b03919091166000908152600d60205260409020805460ff1916911515919091179055565b6001600160a01b0381166000908152600c6020526040812054905b8181101562000350576200034783620003de565b60010162000333565b505050565b60a0516000906200037b836001600160a01b031660009081526007602052604090205490565b620003879190620011c7565b90506000620003ab836001600160a01b03166000908152600c602052604090205490565b905060005b620003bc8284620011ea565b811015620003d857620003cf8462000446565b600101620003b0565b50505050565b6001600160a01b0381166000908152600c6020526040812080546200040690600190620011ea565b8154811062000419576200041962001200565b906000526020600020015490506200043781620004ea60201b60201c565b6200044282620005c4565b5050565b60006200045262000655565b6000818152601160205260409020805460ff1916600117905590506200047882620006c1565b60135460405163adf9fe6160e01b8152600481018390526001600160a01b0384811660248301523060448301529091169063adf9fe6190606401600060405180830381600087803b158015620004cd57600080fd5b505af1158015620004e2573d6000803e3d6000fd5b505050505050565b3360009081526012602052604090205460ff166200051a576040516282b42960e81b815260040160405180910390fd5b6000818152600f60208181526040808420600281015480865260108452828620805460ff1990811690915587875260118552838720805490911690558251808401909352828401868152835294869052929091526200057c9190600162000c28565b50604080518082018252600060208083018281528352858252600f905291909120620005ae9160019182019162000c28565b50506000908152600f6020526040812060020155565b6001600160a01b038116620005ec57604051636edaef2f60e11b815260040160405180910390fd5b6001600160a01b0381166000908152600c6020526040812080546200061490600190620011ea565b8154811062000627576200062762001200565b906000526020600020015490506200064882600083620007b260201b60201c565b620004426001826200099f565b6000806200066262000a0a565b90508015620006a757620006846200067c600183620011ea565b600162000a35565b60008151811062000699576200069962001200565b602002602001015191505090565b600654620006b790600162001216565b91505090565b5090565b6001600160a01b038116620006e957604051634e46966960e11b815260040160405180910390fd5b60006200070a600154600160801b81046001600160801b0390811691161490565b62000723576200071b600162000ae2565b905062000772565b60066000815462000734906200122c565b909155506006546001016200075c5760405163303b682f60e01b815260040160405180910390fd5b6006546200076f90600160ff1b62001216565b90505b6000818152600b60205260409020546001600160a01b03168015620007aa5760405163119b4fd360e11b815260040160405180910390fd5b620003508184845b6001600160a01b03831615620008cc57600081815260096020908152604080832080546001600160a01b03191690556001600160a01b0386168352600c909152812080546200080490600190620011ea565b8154811062000817576200081762001200565b906000526020600020015490508181146200088a576000828152600b602052604081205460a01c6001600160a01b0386166000908152600c60205260409020805491925083918390811062000870576200087062001200565b60009182526020909120015562000888828262000b53565b505b6001600160a01b0384166000908152600c60205260409020805480620008b457620008b462001248565b60019003818190600052602060002001600090559055505b6001600160a01b0382161562000949576000818152600b6020908152604080832080546001600160a01b0319166001600160a01b038716908101909155808452600c83529083208054600181810183558286529385200185905592529054620009439183916200093d9190620011ea565b62000b53565b62000959565b6000818152600b60205260408120555b80826001600160a01b0316846001600160a01b03167fddf252ad1be2c89b69c2b068fc378daa952ba7f163c4a11628f55a4df523b3ef60405160405180910390a4505050565b81546001600160801b038082166000190191600160801b9004811690821603620009dc57604051638acb5f2760e01b815260040160405180910390fd5b6001600160801b0316600081815260018401602052604090209190915581546001600160801b031916179055565b600062000a306001546001600160801b03808216600160801b9092048116919091031690565b905090565b60606000826001600160401b0381111562000a545762000a5462000cf6565b60405190808252806020026020018201604052801562000a7e578160200160208202803683370190505b509050835b62000a8f848662001216565b81101562000ad85762000aa460018262000bbb565b8262000ab18784620011ea565b8151811062000ac45762000ac462001200565b602090810291909101015260010162000a83565b5090505b92915050565b80546000906001600160801b03600160801b820481169116810362000b1a576040516375e52f4f60e01b815260040160405180910390fd5b600019016001600160801b039081166000818152600185016020526040812080549190558454909216600160801b909102179092555090565b6000828152600b60205260409020546001600160601b0382111562000b8b57604051633f2cd0e360e21b815260040160405180910390fd5b6000928352600b60205260409092206001600160a01b039290921660a09190911b6001600160a01b031916019055565b600062000be083546001600160801b03808216600160801b9092048116919091031690565b821062000c005760405163580821e760e01b815260040160405180910390fd5b5081546001600160801b03908116820116600090815260018301602052604090205492915050565b82805482825590600052602060002090810192821562000c73579160200282015b8281111562000c73578251829062000c62908262000d94565b509160200191906001019062000c49565b50620006bd9291505b80821115620006bd57600062000c93828262000c9d565b5060010162000c7c565b50805462000cab9062000d0c565b6000825580601f1062000cbc575050565b601f01602090049060005260206000209081019062000cdc919062000cdf565b50565b5b80821115620006bd576000815560010162000ce0565b634e487b7160e01b600052604160045260246000fd5b600181811c9082168062000d2157607f821691505b60208210810362000d4257634e487b7160e01b600052602260045260246000fd5b50919050565b601f82111562000350576000816000526020600020601f850160051c8101602086101562000d735750805b601f850160051c820191505b81811015620004e25782815560010162000d7f565b81516001600160401b0381111562000db05762000db062000cf6565b62000dc88162000dc1845462000d0c565b8462000d48565b602080601f83116001811462000e00576000841562000de75750858301515b600019600386901b1c1916600185901b178555620004e2565b600085815260208120601f198616915b8281101562000e315788860151825594840194600190910190840162000e10565b508582101562000e505787850151600019600388901b60f8161c191681555b5050505050600190811b01905550565b600082601f83011262000e7257600080fd5b81516001600160401b038082111562000e8f5762000e8f62000cf6565b604051601f8301601f19908116603f0116810190828211818310171562000eba5762000eba62000cf6565b816040528381526020925086602085880101111562000ed857600080fd5b600091505b8382101562000efc578582018301518183018401529082019062000edd565b6000602085830101528094505050505092915050565b805160ff8116811462000f2457600080fd5b919050565b80516001600160a01b038116811462000f2457600080fd5b60008060008060008060c0878903121562000f5b57600080fd5b86516001600160401b038082111562000f7357600080fd5b62000f818a838b0162000e60565b9750602089015191508082111562000f9857600080fd5b62000fa68a838b0162000e60565b9650604089015191508082111562000fbd57600080fd5b62000fcb8a838b0162000e60565b9550606089015191508082111562000fe257600080fd5b5062000ff189828a0162000e60565b935050620010026080880162000f12565b91506200101260a0880162000f29565b90509295509295509295565b634e487b7160e01b600052601160045260246000fd5b600181815b80851115620010755781600019048211156200105957620010596200101e565b808516156200106757918102915b93841c939080029062001039565b509250929050565b6000826200108e5750600162000adc565b816200109d5750600062000adc565b8160018114620010b65760028114620010c157620010e1565b600191505062000adc565b60ff841115620010d557620010d56200101e565b50506001821b62000adc565b5060208310610133831016604e8410600b841016171562001106575081810a62000adc565b62001112838362001034565b80600019048211156200112957620011296200101e565b029392505050565b60006200114260ff8416836200107d565b9392505050565b6000808354620011598162000d0c565b600182811680156200117457600181146200118a57620011bb565b60ff1984168752821515830287019450620011bb565b8760005260208060002060005b85811015620011b25781548a82015290840190820162001197565b50505082870194505b50929695505050505050565b600082620011e557634e487b7160e01b600052601260045260246000fd5b500490565b8181038181111562000adc5762000adc6200101e565b634e487b7160e01b600052603260045260246000fd5b8082018082111562000adc5762000adc6200101e565b6000600182016200124157620012416200101e565b5060010190565b634e487b7160e01b600052603160045260246000fd5b60805160a05160c05160e051613665620012e56000396000610bc401526000610b940152600081816105e80152818161195501528181611bf001528181611c3401528181611cad01528181611cd701528181611d2b01528181611dd701528181611e2401528181611e6801528181611e8f01526125300152600061046701526136656000f3fe608060405234801561001057600080fd5b50600436106103275760003560e01c80637ecebe00116101b8578063c45a015511610104578063dd62ed3e116100a2578063e985e9c51161007c578063e985e9c514610782578063f2fde38b146107b0578063f616f437146107c3578063f780bc1a146107d657600080fd5b8063dd62ed3e14610731578063dd6376991461075c578063dfabc0331461076f57600080fd5b8063c87b56dd116100de578063c87b56dd146106d5578063d05dcc6a146106e8578063d505accf1461070b578063d96ca0b91461071e57600080fd5b8063c45a0155146106a7578063c5ab3ba6146106ba578063c6e672b9146106c257600080fd5b8063a22cb46511610171578063b1ab93171161014b578063b1ab931714610643578063b3f9ea3414610663578063b88d4fde1461068c578063c3aea72a1461069f57600080fd5b8063a22cb4651461060a578063a47bc9811461061d578063a9059cbb1461063057600080fd5b80637ecebe001461058f57806389fb4c66146105af5780638a696e50146105b75780638da5cb5b146105ca57806395d89b41146105db578063976a8435146105e357600080fd5b80633d6abe9a116102775780636352211e11610230578063715018a61161020a578063715018a6146105595780637284e41614610561578063756e52fe146105695780637c4ca9cc1461057c57600080fd5b80636352211e1461051b5780636e8f624b1461052e57806370a082311461053957600080fd5b80633d6abe9a146104a357806342842e0e146104c6578063485cc955146104d95780634d709adf146104ec5780634d966072146104ff5780634f02c4201461051257600080fd5b806309f0ef65116102e45780631f4f5a23116102be5780631f4f5a231461042d57806323b872dd1461044f578063313ce567146104625780633644e5151461049b57600080fd5b806309f0ef65146103fc57806318160ddd1461040f5780631eeece061461041857600080fd5b806301ffc9a71461032c57806302519da31461035457806306fdde031461038b578063081812fc146103a0578063095ea7b3146103e157806309674eb0146103f4575b600080fd5b61033f61033a366004612aa1565b6107e9565b60405190151581526020015b60405180910390f35b61037d610362366004612ad5565b6001600160a01b031660009081526007602052604090205490565b60405190815260200161034b565b610393610820565b60405161034b9190612b40565b6103c96103ae366004612b53565b6009602052600090815260409020546001600160a01b031681565b6040516001600160a01b03909116815260200161034b565b61033f6103ef366004612b6c565b6108ae565b61037d6108e7565b61033f61040a366004612ad5565b610911565b61037d60055481565b61042b610426366004612b6c565b610943565b005b61044061043b366004612b53565b610983565b60405161034b93929190612bf0565b61033f61045d366004612c26565b610b53565b6104897f000000000000000000000000000000000000000000000000000000000000000081565b60405160ff909116815260200161034b565b61037d610b90565b61033f6104b1366004612b53565b60106020526000908152604090205460ff1681565b61042b6104d4366004612c26565b610be6565b61042b6104e7366004612c62565b610c01565b6014546103c9906001600160a01b031681565b61033f61050d366004612b6c565b610ce2565b61037d60065481565b6103c9610529366004612b53565b610d6f565b61037d600160ff1b81565b61037d610547366004612ad5565b60076020526000908152604090205481565b61042b610dd9565b610393610ded565b61042b610577366004612ca5565b610dfa565b61042b61058a366004612b6c565b610e54565b61037d61059d366004612ad5565b600e6020526000908152604090205481565b60055461037d565b61042b6105c5366004612ccf565b610e91565b6000546001600160a01b03166103c9565b610393610e9e565b61037d7f000000000000000000000000000000000000000000000000000000000000000081565b61042b610618366004612ca5565b610eab565b61042b61062b366004612d35565b610f3e565b61033f61063e366004612b6c565b61105d565b610656610651366004612ad5565b611091565b60405161034b9190612db6565b61037d610671366004612ad5565b6001600160a01b03166000908152600c602052604090205490565b61042b61069a366004612ea5565b6110fd565b6103936111eb565b6013546103c9906001600160a01b031681565b60065461037d565b61042b6106d0366004612ca5565b6111f8565b6103936106e3366004612b53565b611231565b61037d6106f6366004612b53565b600f6020526000908152604090206002015481565b61042b610719366004612f20565b611520565b61033f61072c366004612c26565b611763565b61037d61073f366004612c62565b600860209081526000928352604080842090915290825290205481565b61042b61076a366004612c26565b611823565b61042b61077d366004612b6c565b611984565b61033f610790366004612c62565b600a60209081526000928352604080842090915290825290205460ff1681565b61042b6107be366004612ad5565b611a49565b61042b6107d1366004612fd4565b611a84565b6106566107e436600461303f565b611ad5565b60006001600160e01b0319821663caf91ff560e01b148061081a57506001600160e01b031982166301ffc9a760e01b145b92915050565b6003805461082d90613061565b80601f016020809104026020016040519081016040528092919081815260200182805461085990613061565b80156108a65780601f1061087b576101008083540402835291602001916108a6565b820191906000526020600020905b81548152906001019060200180831161088957829003601f168201915b505050505081565b60006108b982611b71565b156108cd576108c88383611984565b6108de565b6108d78383610ce2565b905061081a565b50600192915050565b600061090c6001546001600160801b03808216600160801b9092048116919091031690565b905090565b60006001600160a01b038216158061081a5750506001600160a01b03166000908152600d602052604090205460ff1690565b3360009081526012602052604090205460ff16610972576040516282b42960e81b815260040160405180910390fd5b61097e82600083611b8a565b505050565b6000818152600f6020908152604080832060028101548154835181860281018601909452808452606095869590946001850193929091859190879084015b82821015610a6d5783829060005260206000200180546109e090613061565b80601f0160208091040260200160405190810160405280929190818152602001828054610a0c90613061565b8015610a595780601f10610a2e57610100808354040283529160200191610a59565b820191906000526020600020905b815481529060010190602001808311610a3c57829003601f168201915b5050505050815260200190600101906109c1565b50505050925081805480602002602001604051908101604052809291908181526020016000905b82821015610b40578382906000526020600020018054610ab390613061565b80601f0160208091040260200160405190810160405280929190818152602001828054610adf90613061565b8015610b2c5780601f10610b0157610100808354040283529160200191610b2c565b820191906000526020600020905b815481529060010190602001808311610b0f57829003601f168201915b505050505081526020019060010190610a94565b5050505091509250925092509193909250565b6000610b5e82611b71565b15610b7357610b6e848484611823565b610b85565b610b7e848484611763565b9050610b89565b5060015b9392505050565b60007f00000000000000000000000000000000000000000000000000000000000000004614610bc15761090c611f00565b507f000000000000000000000000000000000000000000000000000000000000000090565b61097e838383604051806020016040528060008152506110fd565b601454600160a01b900460ff1615610c735760405162461bcd60e51b815260206004820152602a60248201527f5468697320636f6e74726163742068617320616c7265616479206265656e20696044820152691b9a5d1a585b1a5e995960b21b60648201526084015b60405180910390fd5b6014805460ff60a01b1916600160a01b178155601380546001600160a01b039485166001600160a01b03199182168117909255600091825260126020526040808320805460ff199081166001908117909255855496909716959092168517909355928152208054909216179055565b60006001600160a01b038316610d0b57604051635461585f60e01b815260040160405180910390fd5b3360008181526008602090815260408083206001600160a01b03881680855290835292819020869055518581529192917f8c5be1e5ebec7d5bd14f71427d1e84f3dd0314c0f7b2291e5b200ac8c7c3b925910160405180910390a350600192915050565b6000818152600b60205260409020546001600160a01b0316610d9082611b71565b610dad576040516307ed98ed60e31b815260040160405180910390fd5b6001600160a01b038116610dd45760405163c5723b5160e01b815260040160405180910390fd5b919050565b610de1611f9a565b610deb6000611fc7565b565b6016805461082d90613061565b3360009081526012602052604090205460ff16610e29576040516282b42960e81b815260040160405180910390fd5b6001600160a01b03919091166000908152601260205260409020805460ff1916911515919091179055565b3360009081526012602052604090205460ff16610e83576040516282b42960e81b815260040160405180910390fd5b610e8d8282612017565b5050565b610e9b338261207c565b50565b6004805461082d90613061565b6001600160a01b038216610ed25760405163ccea9e6f60e01b815260040160405180910390fd5b336000818152600a602090815260408083206001600160a01b03871680855290835292819020805460ff191686151590811790915590519081529192917f17307eab39ab6107e8899845ad3d59bd9653f200f220920489ca2b5937696c31910160405180910390a35050565b3360009081526012602052604090205460ff16610f6d576040516282b42960e81b815260040160405180910390fd5b818414610f8d5760405163b21051df60e01b815260040160405180910390fd5b60008181526010602052604090205460ff1615610fbd5760405163119b4fd360e11b815260040160405180910390fd5b60006040518060600160405280878790610fd7919061309b565b8152602001610fe6858761309b565b815260209081018490526000898152600f82526040902082518051939450849391926110179284929091019061298c565b506020828101518051611030926001850192019061298c565b5060409182015160029091015560009283526010602052909120805460ff19166001179055505050505050565b60006001600160a01b03831661108657604051634e46966960e11b815260040160405180910390fd5b610b89338484611b8a565b6001600160a01b0381166000908152600c60209081526040918290208054835181840281018401909452808452606093928301828280156110f157602002820191906000526020600020905b8154815260200190600101908083116110dd575b50505050509050919050565b61110682611b71565b611123576040516307ed98ed60e31b815260040160405180910390fd5b61112e848484610b53565b506001600160a01b0383163b158015906111c75750604051630a85bd0160e11b808252906001600160a01b0385169063150b7a0290611177903390899088908890600401613134565b6020604051808303816000875af1158015611196573d6000803e3d6000fd5b505050506040513d601f19601f820116820180604052508101906111ba9190613171565b6001600160e01b03191614155b156111e557604051633da6393160e01b815260040160405180910390fd5b50505050565b6015805461082d90613061565b3360009081526012602052604090205460ff16611227576040516282b42960e81b815260040160405180910390fd5b610e8d828261207c565b60008181526011602052604090205460609060ff16611263576040516307ed98ed60e31b815260040160405180910390fd5b6000828152600f60205260408120600101546001600160401b0381111561128c5761128c612dfa565b6040519080825280602002602001820160405280156112d157816020015b60408051808201909152606080825260208201528152602001906001900390816112aa5790505b50905060005b6000848152600f6020526040902060010154811015611496576040805180820182526000868152600f6020529190912080548291908490811061131c5761131c61318e565b90600052602060002001805461133190613061565b80601f016020809104026020016040519081016040528092919081815260200182805461135d90613061565b80156113aa5780601f1061137f576101008083540402835291602001916113aa565b820191906000526020600020905b81548152906001019060200180831161138d57829003601f168201915b50505050508152602001600f600087815260200190815260200160002060010183815481106113db576113db61318e565b9060005260206000200180546113f090613061565b80601f016020809104026020016040519081016040528092919081815260200182805461141c90613061565b80156114695780601f1061143e57610100808354040283529160200191611469565b820191906000526020600020905b81548152906001019060200180831161144c57829003601f168201915b50505050508152508282815181106114835761148361318e565b60209081029190910101526001016112d7565b50604051637b9f6c2b60e11b815273__$6b1de1fc406a1973d638dd61f7fd96099d$__9063f73ed856906114db90869060039060169060179030908990600401613221565b600060405180830381865af41580156114f8573d6000803e3d6000fd5b505050506040513d6000823e601f3d908101601f19168201604052610b8991908101906132f9565b42841015611541576040516305787bdf60e01b815260040160405180910390fd5b61154a85611b71565b15611568576040516303e7c1bd60e31b815260040160405180910390fd5b6001600160a01b03861661158f57604051635461585f60e01b815260040160405180910390fd5b6000600161159b610b90565b6001600160a01b038a81166000818152600e602090815260409182902080546001810190915582517f6e71edae12b1b97f4d1f60370fef10105fa2faae0126114a169c64845d6126c98184015280840194909452938d166060840152608083018c905260a083019390935260c08083018b90528151808403909101815260e08301909152805192019190912061190160f01b6101008301526101028201929092526101228101919091526101420160408051601f198184030181528282528051602091820120600084529083018083525260ff871690820152606081018590526080810184905260a0016020604051602081039080840390855afa1580156116a7573d6000803e3d6000fd5b5050604051601f1901519150506001600160a01b03811615806116dc5750876001600160a01b0316816001600160a01b031614155b156116fa57604051632057875960e21b815260040160405180910390fd5b6001600160a01b0390811660009081526008602090815260408083208a8516808552908352928190208990555188815291928a16917f8c5be1e5ebec7d5bd14f71427d1e84f3dd0314c0f7b2291e5b200ac8c7c3b925910160405180910390a350505050505050565b60006001600160a01b03841661178c57604051636edaef2f60e11b815260040160405180910390fd5b6001600160a01b0383166117b357604051634e46966960e11b815260040160405180910390fd5b6001600160a01b0384166000908152600860209081526040808320338452909152902054600019811461180f576117ea838261337c565b6001600160a01b03861660009081526008602090815260408083203384529091529020555b61181a858585611b8a565b95945050505050565b6001600160a01b03831661184a57604051636edaef2f60e11b815260040160405180910390fd5b6001600160a01b03821661187157604051634e46966960e11b815260040160405180910390fd5b6000818152600b60205260409020546001600160a01b038481169116146118aa576040516282b42960e81b815260040160405180910390fd5b336001600160a01b038416148015906118e757506001600160a01b0383166000908152600a6020908152604080832033845290915290205460ff16155b801561190a57506000818152600960205260409020546001600160a01b03163314155b15611927576040516282b42960e81b815260040160405180910390fd5b61193082610911565b1561194e57604051635ce7539760e01b815260040160405180910390fd5b61197983837f00000000000000000000000000000000000000000000000000000000000000006120eb565b61097e8383836121a7565b6000818152600b60205260409020546001600160a01b03163381148015906119d057506001600160a01b0381166000908152600a6020908152604080832033845290915290205460ff16155b156119ed576040516282b42960e81b815260040160405180910390fd5b60008281526009602052604080822080546001600160a01b0319166001600160a01b0387811691821790925591518593918516917f8c5be1e5ebec7d5bd14f71427d1e84f3dd0314c0f7b2291e5b200ac8c7c3b92591a4505050565b611a51611f9a565b6001600160a01b038116611a7b57604051631e4fbdf760e01b815260006004820152602401610c6a565b610e9b81611fc7565b3360009081526012602052604090205460ff16611ab3576040516282b42960e81b815260040160405180910390fd5b6015611ac08486836133d7565b506016611ace8284836133d7565b5050505050565b60606000826001600160401b03811115611af157611af1612dfa565b604051908082528060200260200182016040528015611b1a578160200160208202803683370190505b509050835b611b298486613496565b811015611b6957611b3b60018261237f565b82611b46878461337c565b81518110611b5657611b5661318e565b6020908102919091010152600101611b1f565b509392505050565b6000600160ff1b8211801561081a575050600019141590565b6001600160a01b03838116600090815260076020526040808220549285168252812054909190611bbb8686866120eb565b6000611bc687610911565b90506000611bd387610911565b9050818015611bdf5750805b611ef2578115611c88576000611c157f0000000000000000000000000000000000000000000000000000000000000000856134a9565b6001600160a01b038916600090815260076020526040902054611c59907f0000000000000000000000000000000000000000000000000000000000000000906134a9565b611c63919061337c565b905060005b81811015611c8157611c79896123ea565b600101611c68565b5050611ef2565b8015611d24576001600160a01b038816600090815260076020526040812054611cd2907f0000000000000000000000000000000000000000000000000000000000000000906134a9565b611cfc7f0000000000000000000000000000000000000000000000000000000000000000876134a9565b611d06919061337c565b905060005b81811015611c8157611d1c8a612488565b600101611d0b565b6000611d507f0000000000000000000000000000000000000000000000000000000000000000886134a9565b905060005b81811015611dd3576001600160a01b038a166000908152600c6020526040812054611d829060019061337c565b6001600160a01b038c166000908152600c602052604081208054929350909183908110611db157611db161318e565b90600052602060002001549050611dc98c8c836121a7565b5050600101611d55565b50807f0000000000000000000000000000000000000000000000000000000000000000611e158b6001600160a01b031660009081526007602052604090205490565b611e1f91906134a9565b611e497f0000000000000000000000000000000000000000000000000000000000000000886134a9565b611e53919061337c565b1115611e6257611e6289612488565b80611e8d7f0000000000000000000000000000000000000000000000000000000000000000866134a9565b7f0000000000000000000000000000000000000000000000000000000000000000611ecd8b6001600160a01b031660009081526007602052604090205490565b611ed791906134a9565b611ee1919061337c565b1115611ef057611ef0886123ea565b505b506001979650505050505050565b60007f8b73c3c69bb8fe3d512ecc4cf759cc79239f7b179b0ffacaa9a75d522b39400f6003604051611f3291906134cb565b6040805191829003822060208301939093528101919091527fc89efdaa54c0f20c7adf612882df0950f5a951637e0307cdcb4c672f298b8bc660608201524660808201523060a082015260c00160405160208183030381529060405280519060200120905090565b6000546001600160a01b03163314610deb5760405163118cdaa760e01b8152336004820152602401610c6a565b600080546001600160a01b038381166001600160a01b0319831681178455604051919092169283917f8be0079c531659141344cd1fd0a4f28419497f9722a3daafe3b4186f6b6457e09190a35050565b6001600160a01b03821661203e57604051634e46966960e11b815260040160405180910390fd5b600160ff1b816005546120519190613496565b11156120705760405163303b682f60e01b815260040160405180910390fd5b61097e60008383611b8a565b6001600160a01b0382166120a35760405163a41e3d3f60e01b815260040160405180910390fd5b80156120b7576120b2826124dd565b6120c0565b6120c082612511565b6001600160a01b03919091166000908152600d60205260409020805460ff1916911515919091179055565b6001600160a01b03831661211657806005600082825461210b9190613496565b909155506121449050565b6001600160a01b0383166000908152600760205260408120805483929061213e90849061337c565b90915550505b6001600160a01b03808316600081815260076020526040908190208054850190555190918516907fddf252ad1be2c89b69c2b068fc378daa952ba7f163c4a11628f55a4df523b3ef9061219a9085815260200190565b60405180910390a3505050565b6001600160a01b038316156122b257600081815260096020908152604080832080546001600160a01b03191690556001600160a01b0386168352600c909152812080546121f69060019061337c565b815481106122065761220661318e565b90600052602060002001549050818114612273576000828152600b602052604081205460a01c6001600160a01b0386166000908152600c60205260409020805491925083918390811061225b5761225b61318e565b600091825260209091200155612271828261259f565b505b6001600160a01b0384166000908152600c6020526040902080548061229a5761229a613541565b60019003818190600052602060002001600090559055505b6001600160a01b03821615612329576000818152600b6020908152604080832080546001600160a01b0319166001600160a01b038716908101909155808452600c8352908320805460018181018355828652938520018590559252905461232491839161231f919061337c565b61259f565b612339565b6000818152600b60205260408120555b80826001600160a01b0316846001600160a01b03167fddf252ad1be2c89b69c2b068fc378daa952ba7f163c4a11628f55a4df523b3ef60405160405180910390a4505050565b60006123a383546001600160801b03808216600160801b9092048116919091031690565b82106123c25760405163580821e760e01b815260040160405180910390fd5b5081546001600160801b03908116820116600090815260018301602052604090205492915050565b60006123f461260b565b6000818152601160205260409020805460ff1916600117905590506124188261266b565b60135460405163adf9fe6160e01b8152600481018390526001600160a01b0384811660248301523060448301529091169063adf9fe6190606401600060405180830381600087803b15801561246c57600080fd5b505af1158015612480573d6000803e3d6000fd5b505050505050565b6001600160a01b0381166000908152600c6020526040812080546124ae9060019061337c565b815481106124be576124be61318e565b906000526020600020015490506124d481612753565b610e8d82612828565b6001600160a01b0381166000908152600c6020526040812054905b8181101561097e5761250983612488565b6001016124f8565b6001600160a01b038116600090815260076020526040812054612555907f0000000000000000000000000000000000000000000000000000000000000000906134a9565b90506000612578836001600160a01b03166000908152600c602052604090205490565b905060005b612587828461337c565b8110156111e557612597846123ea565b60010161257d565b6000828152600b60205260409020546bffffffffffffffffffffffff8211156125db57604051633f2cd0e360e21b815260040160405180910390fd5b6000928352600b60205260409092206001600160a01b039290921660a09190911b6001600160a01b031916019055565b6000806126166108e7565b905080156126535761263361262c60018361337c565b6001611ad5565b6000815181106126455761264561318e565b602002602001015191505090565b600654612661906001613496565b91505090565b5090565b6001600160a01b03811661269257604051634e46966960e11b815260040160405180910390fd5b60006126b2600154600160801b81046001600160801b0390811691161490565b6126c7576126c060016128a9565b9050612711565b6006600081546126d690613557565b909155506006546001016126fd5760405163303b682f60e01b815260040160405180910390fd5b60065461270e90600160ff1b613496565b90505b6000818152600b60205260409020546001600160a01b031680156127485760405163119b4fd360e11b815260040160405180910390fd5b61097e8184846121a7565b3360009081526012602052604090205460ff16612782576040516282b42960e81b815260040160405180910390fd5b6000818152600f60208181526040808420600281015480865260108452828620805460ff1990811690915587875260118552838720805490911690558251808401909352828401868152835294869052929091526127e2919060016129de565b50604080518082018252600060208083018281528352858252600f905291909120612812916001918201916129de565b50506000908152600f6020526040812060020155565b6001600160a01b03811661284f57604051636edaef2f60e11b815260040160405180910390fd5b6001600160a01b0381166000908152600c6020526040812080546128759060019061337c565b815481106128855761288561318e565b9060005260206000200154905061289e826000836121a7565b610e8d600182612919565b80546000906001600160801b03600160801b82048116911681036128e0576040516375e52f4f60e01b815260040160405180910390fd5b600019016001600160801b039081166000818152600185016020526040812080549190558454909216600160801b909102179092555090565b81546001600160801b038082166000190191600160801b900481169082160361295557604051638acb5f2760e01b815260040160405180910390fd5b6001600160801b0316600081815260018401602052604090209190915581546fffffffffffffffffffffffffffffffff1916179055565b8280548282559060005260206000209081019282156129d2579160200282015b828111156129d257825182906129c29082613570565b50916020019190600101906129ac565b50612667929150612a24565b8280548282559060005260206000209081019282156129d2579160200282015b828111156129d25782518290612a149082613570565b50916020019190600101906129fe565b80821115612667576000612a388282612a41565b50600101612a24565b508054612a4d90613061565b6000825580601f10612a5d575050565b601f016020900490600052602060002090810190610e9b91905b808211156126675760008155600101612a77565b6001600160e01b031981168114610e9b57600080fd5b600060208284031215612ab357600080fd5b8135610b8981612a8b565b80356001600160a01b0381168114610dd457600080fd5b600060208284031215612ae757600080fd5b610b8982612abe565b60005b83811015612b0b578181015183820152602001612af3565b50506000910152565b60008151808452612b2c816020860160208601612af0565b601f01601f19169290920160200192915050565b602081526000610b896020830184612b14565b600060208284031215612b6557600080fd5b5035919050565b60008060408385031215612b7f57600080fd5b612b8883612abe565b946020939093013593505050565b60008282518085526020808601955060208260051b8401016020860160005b84811015612be357601f19868403018952612bd1838351612b14565b98840198925090830190600101612bb5565b5090979650505050505050565b606081526000612c036060830186612b96565b8281036020840152612c158186612b96565b915050826040830152949350505050565b600080600060608486031215612c3b57600080fd5b612c4484612abe565b9250612c5260208501612abe565b9150604084013590509250925092565b60008060408385031215612c7557600080fd5b612c7e83612abe565b9150612c8c60208401612abe565b90509250929050565b80358015158114610dd457600080fd5b60008060408385031215612cb857600080fd5b612cc183612abe565b9150612c8c60208401612c95565b600060208284031215612ce157600080fd5b610b8982612c95565b60008083601f840112612cfc57600080fd5b5081356001600160401b03811115612d1357600080fd5b6020830191508360208260051b8501011115612d2e57600080fd5b9250929050565b60008060008060008060808789031215612d4e57600080fd5b8635955060208701356001600160401b0380821115612d6c57600080fd5b612d788a838b01612cea565b90975095506040890135915080821115612d9157600080fd5b50612d9e89828a01612cea565b979a9699509497949695606090950135949350505050565b6020808252825182820181905260009190848201906040850190845b81811015612dee57835183529284019291840191600101612dd2565b50909695505050505050565b634e487b7160e01b600052604160045260246000fd5b604051601f8201601f191681016001600160401b0381118282101715612e3857612e38612dfa565b604052919050565b60006001600160401b03821115612e5957612e59612dfa565b50601f01601f191660200190565b6000612e7a612e7584612e40565b612e10565b9050828152838383011115612e8e57600080fd5b828260208301376000602084830101529392505050565b60008060008060808587031215612ebb57600080fd5b612ec485612abe565b9350612ed260208601612abe565b92506040850135915060608501356001600160401b03811115612ef457600080fd5b8501601f81018713612f0557600080fd5b612f1487823560208401612e67565b91505092959194509250565b600080600080600080600060e0888a031215612f3b57600080fd5b612f4488612abe565b9650612f5260208901612abe565b95506040880135945060608801359350608088013560ff81168114612f7657600080fd5b9699959850939692959460a0840135945060c09093013592915050565b60008083601f840112612fa557600080fd5b5081356001600160401b03811115612fbc57600080fd5b602083019150836020828501011115612d2e57600080fd5b60008060008060408587031215612fea57600080fd5b84356001600160401b038082111561300157600080fd5b61300d88838901612f93565b9096509450602087013591508082111561302657600080fd5b5061303387828801612f93565b95989497509550505050565b6000806040838503121561305257600080fd5b50508035926020909101359150565b600181811c9082168061307557607f821691505b60208210810361309557634e487b7160e01b600052602260045260246000fd5b50919050565b60006001600160401b03808411156130b5576130b5612dfa565b8360051b60206130c760208301612e10565b868152918501916020810190368411156130e057600080fd5b865b84811015613128578035868111156130fa5760008081fd5b880136601f82011261310c5760008081fd5b61311a368235878401612e67565b8452509183019183016130e2565b50979650505050505050565b6001600160a01b038581168252841660208201526040810183905260806060820181905260009061316790830184612b14565b9695505050505050565b60006020828403121561318357600080fd5b8151610b8981612a8b565b634e487b7160e01b600052603260045260246000fd5b600081546131b181613061565b8085526020600183811680156131ce57600181146131e857613216565b60ff1985168884015283151560051b880183019550613216565b866000528260002060005b8581101561320e5781548a82018601529083019084016131f3565b890184019650505b505050505092915050565b8681526000602060c08184015261323b60c08401896131a4565b6040848203604086015261324f828a6131a4565b9150848203606086015261326382896131a4565b6001600160a01b038816608087015285810360a0870152865180825290925083830190600581901b8401850185890160005b838110156132e557868303601f19018552815180518785526132b988860182612b14565b918a0151858303868c01529190506132d18183612b14565b968a01969450505090870190600101613295565b50909e9d5050505050505050505050505050565b60006020828403121561330b57600080fd5b81516001600160401b0381111561332157600080fd5b8201601f8101841361333257600080fd5b8051613340612e7582612e40565b81815285602083850101111561335557600080fd5b61181a826020830160208601612af0565b634e487b7160e01b600052601160045260246000fd5b8181038181111561081a5761081a613366565b601f82111561097e576000816000526020600020601f850160051c810160208610156133b85750805b601f850160051c820191505b81811015612480578281556001016133c4565b6001600160401b038311156133ee576133ee612dfa565b613402836133fc8354613061565b8361338f565b6000601f841160018114613436576000851561341e5750838201355b600019600387901b1c1916600186901b178355611ace565b600083815260209020601f19861690835b828110156134675786850135825560209485019460019092019101613447565b50868210156134845760001960f88860031b161c19848701351681555b505060018560011b0183555050505050565b8082018082111561081a5761081a613366565b6000826134c657634e487b7160e01b600052601260045260246000fd5b500490565b60008083546134d981613061565b600182811680156134f1576001811461350657613535565b60ff1984168752821515830287019450613535565b8760005260208060002060005b8581101561352c5781548a820152908401908201613513565b50505082870194505b50929695505050505050565b634e487b7160e01b600052603160045260246000fd5b60006001820161356957613569613366565b5060010190565b81516001600160401b0381111561358957613589612dfa565b61359d816135978454613061565b8461338f565b602080601f8311600181146135d257600084156135ba5750858301515b600019600386901b1c1916600185901b178555612480565b600085815260208120601f198616915b82811015613601578886015182559484019460019091019084016135e2565b508582101561361f5787850151600019600388901b60f8161c191681555b5050505050600190811b0190555056fea2646970667358221220e6183f0fdc41a68d3a156542e75e39b4f234be5972fdf2e13db8de913a34b26e64736f6c63430008180033",
  "linkReferences": {
    "contracts/extensions/lib/OnChainMetadata.sol": {
      "MetadataLibrary": [
        {
          "length": 20,
          "start": 10123
        }
      ]
    }
  },
  "deployedLinkReferences": {
    "contracts/extensions/lib/OnChainMetadata.sol": {
      "MetadataLibrary": [
        {
          "length": 20,
          "start": 5286
        }
      ]
    }
  }
}